{
	"tutorial/Create2.sol": {
		"PairFactory2": {
			"abi": [
				{
					"inputs": [
						{
							"internalType": "uint256",
							"name": "",
							"type": "uint256"
						}
					],
					"name": "allPairs",
					"outputs": [
						{
							"internalType": "address",
							"name": "",
							"type": "address"
						}
					],
					"stateMutability": "view",
					"type": "function"
				},
				{
					"inputs": [
						{
							"internalType": "address",
							"name": "tokenA",
							"type": "address"
						},
						{
							"internalType": "address",
							"name": "tokenB",
							"type": "address"
						}
					],
					"name": "calculateAddr",
					"outputs": [
						{
							"internalType": "address",
							"name": "predictedAddress",
							"type": "address"
						}
					],
					"stateMutability": "view",
					"type": "function"
				},
				{
					"inputs": [
						{
							"internalType": "address",
							"name": "tokenA",
							"type": "address"
						},
						{
							"internalType": "address",
							"name": "tokenB",
							"type": "address"
						}
					],
					"name": "createPair2",
					"outputs": [
						{
							"internalType": "address",
							"name": "pairAddr",
							"type": "address"
						}
					],
					"stateMutability": "nonpayable",
					"type": "function"
				},
				{
					"inputs": [
						{
							"internalType": "address",
							"name": "",
							"type": "address"
						},
						{
							"internalType": "address",
							"name": "",
							"type": "address"
						}
					],
					"name": "getPair",
					"outputs": [
						{
							"internalType": "address",
							"name": "",
							"type": "address"
						}
					],
					"stateMutability": "view",
					"type": "function"
				}
			],
			"devdoc": {
				"kind": "dev",
				"methods": {},
				"version": 1
			},
			"evm": {
				"assembly": "    /* \"tutorial/Create2.sol\":543:2314  contract PairFactory2{\r... */\n  mstore(0x40, 0x80)\n  callvalue\n  dup1\n  iszero\n  tag_1\n  jumpi\n  0x00\n  dup1\n  revert\ntag_1:\n  pop\n  dataSize(sub_0)\n  dup1\n  dataOffset(sub_0)\n  0x00\n  codecopy\n  0x00\n  return\nstop\n\nsub_0: assembly {\n        /* \"tutorial/Create2.sol\":543:2314  contract PairFactory2{\r... */\n      mstore(0x40, 0x80)\n      callvalue\n      dup1\n      iszero\n      tag_1\n      jumpi\n      0x00\n      dup1\n      revert\n    tag_1:\n      pop\n      jumpi(tag_2, lt(calldatasize, 0x04))\n      shr(0xe0, calldataload(0x00))\n      dup1\n      0x1e3dd18b\n      eq\n      tag_3\n      jumpi\n      dup1\n      0x93850187\n      eq\n      tag_4\n      jumpi\n      dup1\n      0xdf06b188\n      eq\n      tag_5\n      jumpi\n      dup1\n      0xe6a43905\n      eq\n      tag_6\n      jumpi\n    tag_2:\n      0x00\n      dup1\n      revert\n        /* \"tutorial/Create2.sol\":693:718  address[] public allPairs */\n    tag_3:\n      tag_7\n      0x04\n      dup1\n      calldatasize\n      sub\n      dup2\n      add\n      swap1\n      tag_8\n      swap2\n      swap1\n      tag_9\n      jump\t// in\n    tag_8:\n      tag_10\n      jump\t// in\n    tag_7:\n      mload(0x40)\n      tag_11\n      swap2\n      swap1\n      tag_12\n      jump\t// in\n    tag_11:\n      mload(0x40)\n      dup1\n      swap2\n      sub\n      swap1\n      return\n        /* \"tutorial/Create2.sol\":752:1549  function createPair2(address tokenA, address tokenB) external returns (address pairAddr) {\r... */\n    tag_4:\n      tag_13\n      0x04\n      dup1\n      calldatasize\n      sub\n      dup2\n      add\n      swap1\n      tag_14\n      swap2\n      swap1\n      tag_15\n      jump\t// in\n    tag_14:\n      tag_16\n      jump\t// in\n    tag_13:\n      mload(0x40)\n      tag_17\n      swap2\n      swap1\n      tag_12\n      jump\t// in\n    tag_17:\n      mload(0x40)\n      dup1\n      swap2\n      sub\n      swap1\n      return\n        /* \"tutorial/Create2.sol\":1599:2311  function calculateAddr(address tokenA, address tokenB) public view returns(address predictedAddress){\r... */\n    tag_5:\n      tag_18\n      0x04\n      dup1\n      calldatasize\n      sub\n      dup2\n      add\n      swap1\n      tag_19\n      swap2\n      swap1\n      tag_15\n      jump\t// in\n    tag_19:\n      tag_20\n      jump\t// in\n    tag_18:\n      mload(0x40)\n      tag_21\n      swap2\n      swap1\n      tag_12\n      jump\t// in\n    tag_21:\n      mload(0x40)\n      dup1\n      swap2\n      sub\n      swap1\n      return\n        /* \"tutorial/Create2.sol\":571:633  mapping(address => mapping(address => address)) public getPair */\n    tag_6:\n      tag_22\n      0x04\n      dup1\n      calldatasize\n      sub\n      dup2\n      add\n      swap1\n      tag_23\n      swap2\n      swap1\n      tag_15\n      jump\t// in\n    tag_23:\n      tag_24\n      jump\t// in\n    tag_22:\n      mload(0x40)\n      tag_25\n      swap2\n      swap1\n      tag_12\n      jump\t// in\n    tag_25:\n      mload(0x40)\n      dup1\n      swap2\n      sub\n      swap1\n      return\n        /* \"tutorial/Create2.sol\":693:718  address[] public allPairs */\n    tag_10:\n      0x01\n      dup2\n      dup2\n      sload\n      dup2\n      lt\n      tag_26\n      jumpi\n      0x00\n      dup1\n      revert\n    tag_26:\n      swap1\n      0x00\n      mstore\n      keccak256(0x00, 0x20)\n      add\n      0x00\n      swap2\n      pop\n      sload\n      swap1\n      0x0100\n      exp\n      swap1\n      div\n      0xffffffffffffffffffffffffffffffffffffffff\n      and\n      dup2\n      jump\t// out\n        /* \"tutorial/Create2.sol\":752:1549  function createPair2(address tokenA, address tokenB) external returns (address pairAddr) {\r... */\n    tag_16:\n        /* \"tutorial/Create2.sol\":823:839  address pairAddr */\n      0x00\n        /* \"tutorial/Create2.sol\":868:874  tokenB */\n      dup2\n        /* \"tutorial/Create2.sol\":860:874  tokenA!=tokenB */\n      0xffffffffffffffffffffffffffffffffffffffff\n      and\n        /* \"tutorial/Create2.sol\":860:866  tokenA */\n      dup4\n        /* \"tutorial/Create2.sol\":860:874  tokenA!=tokenB */\n      0xffffffffffffffffffffffffffffffffffffffff\n      and\n      eq\n      iszero\n        /* \"tutorial/Create2.sol\":852:896  require(tokenA!=tokenB, 'IDENTICAL_ADDRESS') */\n      tag_29\n      jumpi\n      mload(0x40)\n      0x08c379a000000000000000000000000000000000000000000000000000000000\n      dup2\n      mstore\n      0x04\n      add\n      tag_30\n      swap1\n      tag_31\n      jump\t// in\n    tag_30:\n      mload(0x40)\n      dup1\n      swap2\n      sub\n      swap1\n      revert\n    tag_29:\n        /* \"tutorial/Create2.sol\":1010:1024  address token0 */\n      0x00\n        /* \"tutorial/Create2.sol\":1026:1040  address token1 */\n      dup1\n        /* \"tutorial/Create2.sol\":1053:1059  tokenB */\n      dup4\n        /* \"tutorial/Create2.sol\":1044:1059  tokenA < tokenB */\n      0xffffffffffffffffffffffffffffffffffffffff\n      and\n        /* \"tutorial/Create2.sol\":1044:1050  tokenA */\n      dup6\n        /* \"tutorial/Create2.sol\":1044:1059  tokenA < tokenB */\n      0xffffffffffffffffffffffffffffffffffffffff\n      and\n      lt\n        /* \"tutorial/Create2.sol\":1044:1097  tokenA < tokenB ? (tokenA, tokenB) : (tokenB, tokenA) */\n      tag_32\n      jumpi\n        /* \"tutorial/Create2.sol\":1082:1088  tokenB */\n      dup4\n        /* \"tutorial/Create2.sol\":1090:1096  tokenA */\n      dup6\n        /* \"tutorial/Create2.sol\":1044:1097  tokenA < tokenB ? (tokenA, tokenB) : (tokenB, tokenA) */\n      jump(tag_33)\n    tag_32:\n        /* \"tutorial/Create2.sol\":1063:1069  tokenA */\n      dup5\n        /* \"tutorial/Create2.sol\":1071:1077  tokenB */\n      dup5\n        /* \"tutorial/Create2.sol\":1044:1097  tokenA < tokenB ? (tokenA, tokenB) : (tokenB, tokenA) */\n    tag_33:\n        /* \"tutorial/Create2.sol\":1009:1097  (address token0, address token1) = tokenA < tokenB ? (tokenA, tokenB) : (tokenB, tokenA) */\n      swap2\n      pop\n      swap2\n      pop\n        /* \"tutorial/Create2.sol\":1108:1120  bytes32 salt */\n      0x00\n        /* \"tutorial/Create2.sol\":1150:1156  token0 */\n      dup3\n        /* \"tutorial/Create2.sol\":1158:1164  token1 */\n      dup3\n        /* \"tutorial/Create2.sol\":1133:1165  abi.encodePacked(token0, token1) */\n      add(0x20, mload(0x40))\n      tag_34\n      swap3\n      swap2\n      swap1\n      tag_35\n      jump\t// in\n    tag_34:\n      mload(0x40)\n      0x20\n      dup2\n      dup4\n      sub\n      sub\n      dup2\n      mstore\n      swap1\n      0x40\n      mstore\n        /* \"tutorial/Create2.sol\":1123:1166  keccak256(abi.encodePacked(token0, token1)) */\n      dup1\n      mload\n      swap1\n      0x20\n      add\n      keccak256\n        /* \"tutorial/Create2.sol\":1108:1166  bytes32 salt = keccak256(abi.encodePacked(token0, token1)) */\n      swap1\n      pop\n        /* \"tutorial/Create2.sol\":1225:1234  Pair pair */\n      0x00\n        /* \"tutorial/Create2.sol\":1252:1256  salt */\n      dup2\n        /* \"tutorial/Create2.sol\":1237:1259  new Pair{salt: salt}() */\n      mload(0x40)\n      tag_36\n      swap1\n      tag_37\n      jump\t// in\n    tag_36:\n      dup2\n      swap1\n      mload(0x40)\n      dup1\n      swap2\n      sub\n      swap1\n      0x00\n      create2\n      swap1\n      pop\n      dup1\n      iszero\n      dup1\n      iszero\n      tag_38\n      jumpi\n      returndatasize\n      0x00\n      dup1\n      returndatacopy\n      revert(0x00, returndatasize)\n    tag_38:\n      pop\n        /* \"tutorial/Create2.sol\":1225:1259  Pair pair = new Pair{salt: salt}() */\n      swap1\n      pop\n        /* \"tutorial/Create2.sol\":1328:1332  pair */\n      dup1\n        /* \"tutorial/Create2.sol\":1328:1343  pair.initialize */\n      0xffffffffffffffffffffffffffffffffffffffff\n      and\n      0x485cc955\n        /* \"tutorial/Create2.sol\":1344:1350  tokenA */\n      dup9\n        /* \"tutorial/Create2.sol\":1352:1358  tokenB */\n      dup9\n        /* \"tutorial/Create2.sol\":1328:1359  pair.initialize(tokenA, tokenB) */\n      mload(0x40)\n      dup4\n      0xffffffff\n      and\n      0xe0\n      shl\n      dup2\n      mstore\n      0x04\n      add\n      tag_39\n      swap3\n      swap2\n      swap1\n      tag_40\n      jump\t// in\n    tag_39:\n      0x00\n      mload(0x40)\n      dup1\n      dup4\n      sub\n      dup2\n      0x00\n      dup8\n      dup1\n      extcodesize\n      iszero\n      dup1\n      iszero\n      tag_41\n      jumpi\n      0x00\n      dup1\n      revert\n    tag_41:\n      pop\n      gas\n      call\n      iszero\n      dup1\n      iszero\n      tag_43\n      jumpi\n      returndatasize\n      0x00\n      dup1\n      returndatacopy\n      revert(0x00, returndatasize)\n    tag_43:\n      pop\n      pop\n      pop\n      pop\n        /* \"tutorial/Create2.sol\":1412:1416  pair */\n      dup1\n        /* \"tutorial/Create2.sol\":1393:1417  pairAddr = address(pair) */\n      swap5\n      pop\n        /* \"tutorial/Create2.sol\":1428:1436  allPairs */\n      0x01\n        /* \"tutorial/Create2.sol\":1442:1450  pairAddr */\n      dup6\n        /* \"tutorial/Create2.sol\":1428:1451  allPairs.push(pairAddr) */\n      swap1\n      dup1\n      0x01\n      dup2\n      sload\n      add\n      dup1\n      dup3\n      sstore\n      dup1\n      swap2\n      pop\n      pop\n      0x01\n      swap1\n      sub\n      swap1\n      0x00\n      mstore\n      keccak256(0x00, 0x20)\n      add\n      0x00\n      swap1\n      swap2\n      swap1\n      swap2\n      swap1\n      swap2\n      0x0100\n      exp\n      dup2\n      sload\n      dup2\n      0xffffffffffffffffffffffffffffffffffffffff\n      mul\n      not\n      and\n      swap1\n      dup4\n      0xffffffffffffffffffffffffffffffffffffffff\n      and\n      mul\n      or\n      swap1\n      sstore\n      pop\n        /* \"tutorial/Create2.sol\":1488:1496  pairAddr */\n      dup5\n        /* \"tutorial/Create2.sol\":1462:1469  getPair */\n      0x00\n        /* \"tutorial/Create2.sol\":1462:1477  getPair[tokenA] */\n      dup1\n        /* \"tutorial/Create2.sol\":1470:1476  tokenA */\n      dup10\n        /* \"tutorial/Create2.sol\":1462:1477  getPair[tokenA] */\n      0xffffffffffffffffffffffffffffffffffffffff\n      and\n      0xffffffffffffffffffffffffffffffffffffffff\n      and\n      dup2\n      mstore\n      0x20\n      add\n      swap1\n      dup2\n      mstore\n      0x20\n      add\n      0x00\n      keccak256\n        /* \"tutorial/Create2.sol\":1462:1485  getPair[tokenA][tokenB] */\n      0x00\n        /* \"tutorial/Create2.sol\":1478:1484  tokenB */\n      dup9\n        /* \"tutorial/Create2.sol\":1462:1485  getPair[tokenA][tokenB] */\n      0xffffffffffffffffffffffffffffffffffffffff\n      and\n      0xffffffffffffffffffffffffffffffffffffffff\n      and\n      dup2\n      mstore\n      0x20\n      add\n      swap1\n      dup2\n      mstore\n      0x20\n      add\n      0x00\n      keccak256\n      0x00\n        /* \"tutorial/Create2.sol\":1462:1496  getPair[tokenA][tokenB] = pairAddr */\n      0x0100\n      exp\n      dup2\n      sload\n      dup2\n      0xffffffffffffffffffffffffffffffffffffffff\n      mul\n      not\n      and\n      swap1\n      dup4\n      0xffffffffffffffffffffffffffffffffffffffff\n      and\n      mul\n      or\n      swap1\n      sstore\n      pop\n        /* \"tutorial/Create2.sol\":1533:1541  pairAddr */\n      dup5\n        /* \"tutorial/Create2.sol\":1507:1514  getPair */\n      0x00\n        /* \"tutorial/Create2.sol\":1507:1522  getPair[tokenB] */\n      dup1\n        /* \"tutorial/Create2.sol\":1515:1521  tokenB */\n      dup9\n        /* \"tutorial/Create2.sol\":1507:1522  getPair[tokenB] */\n      0xffffffffffffffffffffffffffffffffffffffff\n      and\n      0xffffffffffffffffffffffffffffffffffffffff\n      and\n      dup2\n      mstore\n      0x20\n      add\n      swap1\n      dup2\n      mstore\n      0x20\n      add\n      0x00\n      keccak256\n        /* \"tutorial/Create2.sol\":1507:1530  getPair[tokenB][tokenA] */\n      0x00\n        /* \"tutorial/Create2.sol\":1523:1529  tokenA */\n      dup10\n        /* \"tutorial/Create2.sol\":1507:1530  getPair[tokenB][tokenA] */\n      0xffffffffffffffffffffffffffffffffffffffff\n      and\n      0xffffffffffffffffffffffffffffffffffffffff\n      and\n      dup2\n      mstore\n      0x20\n      add\n      swap1\n      dup2\n      mstore\n      0x20\n      add\n      0x00\n      keccak256\n      0x00\n        /* \"tutorial/Create2.sol\":1507:1541  getPair[tokenB][tokenA] = pairAddr */\n      0x0100\n      exp\n      dup2\n      sload\n      dup2\n      0xffffffffffffffffffffffffffffffffffffffff\n      mul\n      not\n      and\n      swap1\n      dup4\n      0xffffffffffffffffffffffffffffffffffffffff\n      and\n      mul\n      or\n      swap1\n      sstore\n      pop\n        /* \"tutorial/Create2.sol\":841:1549  {\r... */\n      pop\n      pop\n      pop\n      pop\n        /* \"tutorial/Create2.sol\":752:1549  function createPair2(address tokenA, address tokenB) external returns (address pairAddr) {\r... */\n      swap3\n      swap2\n      pop\n      pop\n      jump\t// out\n        /* \"tutorial/Create2.sol\":1599:2311  function calculateAddr(address tokenA, address tokenB) public view returns(address predictedAddress){\r... */\n    tag_20:\n        /* \"tutorial/Create2.sol\":1674:1698  address predictedAddress */\n      0x00\n        /* \"tutorial/Create2.sol\":1728:1734  tokenB */\n      dup2\n        /* \"tutorial/Create2.sol\":1718:1734  tokenA != tokenB */\n      0xffffffffffffffffffffffffffffffffffffffff\n      and\n        /* \"tutorial/Create2.sol\":1718:1724  tokenA */\n      dup4\n        /* \"tutorial/Create2.sol\":1718:1734  tokenA != tokenB */\n      0xffffffffffffffffffffffffffffffffffffffff\n      and\n      eq\n      iszero\n        /* \"tutorial/Create2.sol\":1710:1758  require(tokenA != tokenB, 'IDENTICAL_ADDRESSES') */\n      tag_46\n      jumpi\n      mload(0x40)\n      0x08c379a000000000000000000000000000000000000000000000000000000000\n      dup2\n      mstore\n      0x04\n      add\n      tag_47\n      swap1\n      tag_48\n      jump\t// in\n    tag_47:\n      mload(0x40)\n      dup1\n      swap2\n      sub\n      swap1\n      revert\n    tag_46:\n        /* \"tutorial/Create2.sol\":1871:1885  address token0 */\n      0x00\n        /* \"tutorial/Create2.sol\":1887:1901  address token1 */\n      dup1\n        /* \"tutorial/Create2.sol\":1914:1920  tokenB */\n      dup4\n        /* \"tutorial/Create2.sol\":1905:1920  tokenA < tokenB */\n      0xffffffffffffffffffffffffffffffffffffffff\n      and\n        /* \"tutorial/Create2.sol\":1905:1911  tokenA */\n      dup6\n        /* \"tutorial/Create2.sol\":1905:1920  tokenA < tokenB */\n      0xffffffffffffffffffffffffffffffffffffffff\n      and\n      lt\n        /* \"tutorial/Create2.sol\":1905:1958  tokenA < tokenB ? (tokenA, tokenB) : (tokenB, tokenA) */\n      tag_49\n      jumpi\n        /* \"tutorial/Create2.sol\":1943:1949  tokenB */\n      dup4\n        /* \"tutorial/Create2.sol\":1951:1957  tokenA */\n      dup6\n        /* \"tutorial/Create2.sol\":1905:1958  tokenA < tokenB ? (tokenA, tokenB) : (tokenB, tokenA) */\n      jump(tag_50)\n    tag_49:\n        /* \"tutorial/Create2.sol\":1924:1930  tokenA */\n      dup5\n        /* \"tutorial/Create2.sol\":1932:1938  tokenB */\n      dup5\n        /* \"tutorial/Create2.sol\":1905:1958  tokenA < tokenB ? (tokenA, tokenB) : (tokenB, tokenA) */\n    tag_50:\n        /* \"tutorial/Create2.sol\":1870:1958  (address token0, address token1) = tokenA < tokenB ? (tokenA, tokenB) : (tokenB, tokenA) */\n      swap2\n      pop\n      swap2\n      pop\n        /* \"tutorial/Create2.sol\":2005:2017  bytes32 salt */\n      0x00\n        /* \"tutorial/Create2.sol\":2047:2053  token0 */\n      dup3\n        /* \"tutorial/Create2.sol\":2055:2061  token1 */\n      dup3\n        /* \"tutorial/Create2.sol\":2030:2062  abi.encodePacked(token0, token1) */\n      add(0x20, mload(0x40))\n      tag_51\n      swap3\n      swap2\n      swap1\n      tag_35\n      jump\t// in\n    tag_51:\n      mload(0x40)\n      0x20\n      dup2\n      dup4\n      sub\n      sub\n      dup2\n      mstore\n      swap1\n      0x40\n      mstore\n        /* \"tutorial/Create2.sol\":2020:2063  keccak256(abi.encodePacked(token0, token1)) */\n      dup1\n      mload\n      swap1\n      0x20\n      add\n      keccak256\n        /* \"tutorial/Create2.sol\":2005:2063  bytes32 salt = keccak256(abi.encodePacked(token0, token1)) */\n      swap1\n      pop\n        /* \"tutorial/Create2.sol\":2187:2191  0xff */\n      0xff\n        /* \"tutorial/Create2.sol\":2180:2192  bytes1(0xff) */\n      0xf8\n      shl\n        /* \"tutorial/Create2.sol\":2215:2219  this */\n      address\n        /* \"tutorial/Create2.sol\":2235:2239  salt */\n      dup3\n        /* \"tutorial/Create2.sol\":2264:2287  type(Pair).creationCode */\n      mload(0x40)\n      dup1\n      0x20\n      add\n      tag_52\n      swap1\n      tag_37\n      jump\t// in\n    tag_52:\n      0x20\n      dup3\n      add\n      dup2\n      sub\n      dup3\n      mstore\n      not(0x1f)\n      0x1f\n      dup3\n      add\n      and\n      0x40\n      mstore\n      pop\n        /* \"tutorial/Create2.sol\":2254:2288  keccak256(type(Pair).creationCode) */\n      dup1\n      mload\n      swap1\n      0x20\n      add\n      keccak256\n        /* \"tutorial/Create2.sol\":2149:2299  abi.encodePacked(\r... */\n      add(0x20, mload(0x40))\n      tag_53\n      swap5\n      swap4\n      swap3\n      swap2\n      swap1\n      tag_54\n      jump\t// in\n    tag_53:\n      mload(0x40)\n      0x20\n      dup2\n      dup4\n      sub\n      sub\n      dup2\n      mstore\n      swap1\n      0x40\n      mstore\n        /* \"tutorial/Create2.sol\":2139:2300  keccak256(abi.encodePacked(\r... */\n      dup1\n      mload\n      swap1\n      0x20\n      add\n      keccak256\n        /* \"tutorial/Create2.sol\":2134:2301  uint(keccak256(abi.encodePacked(\r... */\n      0x00\n      shr\n        /* \"tutorial/Create2.sol\":2099:2303  predictedAddress = address(uint160(uint(keccak256(abi.encodePacked(\r... */\n      swap4\n      pop\n        /* \"tutorial/Create2.sol\":1699:2311  {\r... */\n      pop\n      pop\n      pop\n        /* \"tutorial/Create2.sol\":1599:2311  function calculateAddr(address tokenA, address tokenB) public view returns(address predictedAddress){\r... */\n      swap3\n      swap2\n      pop\n      pop\n      jump\t// out\n        /* \"tutorial/Create2.sol\":571:633  mapping(address => mapping(address => address)) public getPair */\n    tag_24:\n      mstore(0x20, 0x00)\n      dup2\n      0x00\n      mstore\n      mstore(0x20, keccak256(0x00, 0x40))\n      dup1\n      0x00\n      mstore\n      keccak256(0x00, 0x40)\n      0x00\n      swap2\n      pop\n      swap2\n      pop\n      swap1\n      sload\n      swap1\n      0x0100\n      exp\n      swap1\n      div\n      0xffffffffffffffffffffffffffffffffffffffff\n      and\n      dup2\n      jump\t// out\n    tag_37:\n      dataSize(sub_0)\n      dup1\n      dataOffset(sub_0)\n      dup4\n      codecopy\n      add\n      swap1\n      jump\t// out\n        /* \"#utility.yul\":7:146   */\n    tag_56:\n        /* \"#utility.yul\":53:58   */\n      0x00\n        /* \"#utility.yul\":91:97   */\n      dup2\n        /* \"#utility.yul\":78:98   */\n      calldataload\n        /* \"#utility.yul\":69:98   */\n      swap1\n      pop\n        /* \"#utility.yul\":107:140   */\n      tag_58\n        /* \"#utility.yul\":134:139   */\n      dup2\n        /* \"#utility.yul\":107:140   */\n      tag_59\n      jump\t// in\n    tag_58:\n        /* \"#utility.yul\":7:146   */\n      swap3\n      swap2\n      pop\n      pop\n      jump\t// out\n        /* \"#utility.yul\":152:291   */\n    tag_60:\n        /* \"#utility.yul\":198:203   */\n      0x00\n        /* \"#utility.yul\":236:242   */\n      dup2\n        /* \"#utility.yul\":223:243   */\n      calldataload\n        /* \"#utility.yul\":214:243   */\n      swap1\n      pop\n        /* \"#utility.yul\":252:285   */\n      tag_62\n        /* \"#utility.yul\":279:284   */\n      dup2\n        /* \"#utility.yul\":252:285   */\n      tag_63\n      jump\t// in\n    tag_62:\n        /* \"#utility.yul\":152:291   */\n      swap3\n      swap2\n      pop\n      pop\n      jump\t// out\n        /* \"#utility.yul\":297:771   */\n    tag_15:\n        /* \"#utility.yul\":365:371   */\n      0x00\n        /* \"#utility.yul\":373:379   */\n      dup1\n        /* \"#utility.yul\":422:424   */\n      0x40\n        /* \"#utility.yul\":410:419   */\n      dup4\n        /* \"#utility.yul\":401:408   */\n      dup6\n        /* \"#utility.yul\":397:420   */\n      sub\n        /* \"#utility.yul\":393:425   */\n      slt\n        /* \"#utility.yul\":390:509   */\n      iszero\n      tag_65\n      jumpi\n        /* \"#utility.yul\":428:507   */\n      tag_66\n      tag_67\n      jump\t// in\n    tag_66:\n        /* \"#utility.yul\":390:509   */\n    tag_65:\n        /* \"#utility.yul\":548:549   */\n      0x00\n        /* \"#utility.yul\":573:626   */\n      tag_68\n        /* \"#utility.yul\":618:625   */\n      dup6\n        /* \"#utility.yul\":609:615   */\n      dup3\n        /* \"#utility.yul\":598:607   */\n      dup7\n        /* \"#utility.yul\":594:616   */\n      add\n        /* \"#utility.yul\":573:626   */\n      tag_56\n      jump\t// in\n    tag_68:\n        /* \"#utility.yul\":563:626   */\n      swap3\n      pop\n        /* \"#utility.yul\":519:636   */\n      pop\n        /* \"#utility.yul\":675:677   */\n      0x20\n        /* \"#utility.yul\":701:754   */\n      tag_69\n        /* \"#utility.yul\":746:753   */\n      dup6\n        /* \"#utility.yul\":737:743   */\n      dup3\n        /* \"#utility.yul\":726:735   */\n      dup7\n        /* \"#utility.yul\":722:744   */\n      add\n        /* \"#utility.yul\":701:754   */\n      tag_56\n      jump\t// in\n    tag_69:\n        /* \"#utility.yul\":691:754   */\n      swap2\n      pop\n        /* \"#utility.yul\":646:764   */\n      pop\n        /* \"#utility.yul\":297:771   */\n      swap3\n      pop\n      swap3\n      swap1\n      pop\n      jump\t// out\n        /* \"#utility.yul\":777:1106   */\n    tag_9:\n        /* \"#utility.yul\":836:842   */\n      0x00\n        /* \"#utility.yul\":885:887   */\n      0x20\n        /* \"#utility.yul\":873:882   */\n      dup3\n        /* \"#utility.yul\":864:871   */\n      dup5\n        /* \"#utility.yul\":860:883   */\n      sub\n        /* \"#utility.yul\":856:888   */\n      slt\n        /* \"#utility.yul\":853:972   */\n      iszero\n      tag_71\n      jumpi\n        /* \"#utility.yul\":891:970   */\n      tag_72\n      tag_67\n      jump\t// in\n    tag_72:\n        /* \"#utility.yul\":853:972   */\n    tag_71:\n        /* \"#utility.yul\":1011:1012   */\n      0x00\n        /* \"#utility.yul\":1036:1089   */\n      tag_73\n        /* \"#utility.yul\":1081:1088   */\n      dup5\n        /* \"#utility.yul\":1072:1078   */\n      dup3\n        /* \"#utility.yul\":1061:1070   */\n      dup6\n        /* \"#utility.yul\":1057:1079   */\n      add\n        /* \"#utility.yul\":1036:1089   */\n      tag_60\n      jump\t// in\n    tag_73:\n        /* \"#utility.yul\":1026:1089   */\n      swap2\n      pop\n        /* \"#utility.yul\":982:1099   */\n      pop\n        /* \"#utility.yul\":777:1106   */\n      swap3\n      swap2\n      pop\n      pop\n      jump\t// out\n        /* \"#utility.yul\":1112:1230   */\n    tag_74:\n        /* \"#utility.yul\":1199:1223   */\n      tag_76\n        /* \"#utility.yul\":1217:1222   */\n      dup2\n        /* \"#utility.yul\":1199:1223   */\n      tag_77\n      jump\t// in\n    tag_76:\n        /* \"#utility.yul\":1194:1197   */\n      dup3\n        /* \"#utility.yul\":1187:1224   */\n      mstore\n        /* \"#utility.yul\":1112:1230   */\n      pop\n      pop\n      jump\t// out\n        /* \"#utility.yul\":1236:1393   */\n    tag_78:\n        /* \"#utility.yul\":1341:1386   */\n      tag_80\n        /* \"#utility.yul\":1361:1385   */\n      tag_81\n        /* \"#utility.yul\":1379:1384   */\n      dup3\n        /* \"#utility.yul\":1361:1385   */\n      tag_77\n      jump\t// in\n    tag_81:\n        /* \"#utility.yul\":1341:1386   */\n      tag_82\n      jump\t// in\n    tag_80:\n        /* \"#utility.yul\":1336:1339   */\n      dup3\n        /* \"#utility.yul\":1329:1387   */\n      mstore\n        /* \"#utility.yul\":1236:1393   */\n      pop\n      pop\n      jump\t// out\n        /* \"#utility.yul\":1399:1552   */\n    tag_83:\n        /* \"#utility.yul\":1502:1545   */\n      tag_85\n        /* \"#utility.yul\":1521:1544   */\n      tag_86\n        /* \"#utility.yul\":1538:1543   */\n      dup3\n        /* \"#utility.yul\":1521:1544   */\n      tag_87\n      jump\t// in\n    tag_86:\n        /* \"#utility.yul\":1502:1545   */\n      tag_88\n      jump\t// in\n    tag_85:\n        /* \"#utility.yul\":1497:1500   */\n      dup3\n        /* \"#utility.yul\":1490:1546   */\n      mstore\n        /* \"#utility.yul\":1399:1552   */\n      pop\n      pop\n      jump\t// out\n        /* \"#utility.yul\":1558:1715   */\n    tag_89:\n        /* \"#utility.yul\":1663:1708   */\n      tag_91\n        /* \"#utility.yul\":1683:1707   */\n      tag_92\n        /* \"#utility.yul\":1701:1706   */\n      dup3\n        /* \"#utility.yul\":1683:1707   */\n      tag_93\n      jump\t// in\n    tag_92:\n        /* \"#utility.yul\":1663:1708   */\n      tag_94\n      jump\t// in\n    tag_91:\n        /* \"#utility.yul\":1658:1661   */\n      dup3\n        /* \"#utility.yul\":1651:1709   */\n      mstore\n        /* \"#utility.yul\":1558:1715   */\n      pop\n      pop\n      jump\t// out\n        /* \"#utility.yul\":1721:2087   */\n    tag_95:\n        /* \"#utility.yul\":1863:1866   */\n      0x00\n        /* \"#utility.yul\":1884:1951   */\n      tag_97\n        /* \"#utility.yul\":1948:1950   */\n      0x13\n        /* \"#utility.yul\":1943:1946   */\n      dup4\n        /* \"#utility.yul\":1884:1951   */\n      tag_98\n      jump\t// in\n    tag_97:\n        /* \"#utility.yul\":1877:1951   */\n      swap2\n      pop\n        /* \"#utility.yul\":1960:2053   */\n      tag_99\n        /* \"#utility.yul\":2049:2052   */\n      dup3\n        /* \"#utility.yul\":1960:2053   */\n      tag_100\n      jump\t// in\n    tag_99:\n        /* \"#utility.yul\":2078:2080   */\n      0x20\n        /* \"#utility.yul\":2073:2076   */\n      dup3\n        /* \"#utility.yul\":2069:2081   */\n      add\n        /* \"#utility.yul\":2062:2081   */\n      swap1\n      pop\n        /* \"#utility.yul\":1721:2087   */\n      swap2\n      swap1\n      pop\n      jump\t// out\n        /* \"#utility.yul\":2093:2459   */\n    tag_101:\n        /* \"#utility.yul\":2235:2238   */\n      0x00\n        /* \"#utility.yul\":2256:2323   */\n      tag_103\n        /* \"#utility.yul\":2320:2322   */\n      0x11\n        /* \"#utility.yul\":2315:2318   */\n      dup4\n        /* \"#utility.yul\":2256:2323   */\n      tag_98\n      jump\t// in\n    tag_103:\n        /* \"#utility.yul\":2249:2323   */\n      swap2\n      pop\n        /* \"#utility.yul\":2332:2425   */\n      tag_104\n        /* \"#utility.yul\":2421:2424   */\n      dup3\n        /* \"#utility.yul\":2332:2425   */\n      tag_105\n      jump\t// in\n    tag_104:\n        /* \"#utility.yul\":2450:2452   */\n      0x20\n        /* \"#utility.yul\":2445:2448   */\n      dup3\n        /* \"#utility.yul\":2441:2453   */\n      add\n        /* \"#utility.yul\":2434:2453   */\n      swap1\n      pop\n        /* \"#utility.yul\":2093:2459   */\n      swap2\n      swap1\n      pop\n      jump\t// out\n        /* \"#utility.yul\":2465:2862   */\n    tag_35:\n        /* \"#utility.yul\":2605:2608   */\n      0x00\n        /* \"#utility.yul\":2620:2695   */\n      tag_107\n        /* \"#utility.yul\":2691:2694   */\n      dup3\n        /* \"#utility.yul\":2682:2688   */\n      dup6\n        /* \"#utility.yul\":2620:2695   */\n      tag_78\n      jump\t// in\n    tag_107:\n        /* \"#utility.yul\":2720:2722   */\n      0x14\n        /* \"#utility.yul\":2715:2718   */\n      dup3\n        /* \"#utility.yul\":2711:2723   */\n      add\n        /* \"#utility.yul\":2704:2723   */\n      swap2\n      pop\n        /* \"#utility.yul\":2733:2808   */\n      tag_108\n        /* \"#utility.yul\":2804:2807   */\n      dup3\n        /* \"#utility.yul\":2795:2801   */\n      dup5\n        /* \"#utility.yul\":2733:2808   */\n      tag_78\n      jump\t// in\n    tag_108:\n        /* \"#utility.yul\":2833:2835   */\n      0x14\n        /* \"#utility.yul\":2828:2831   */\n      dup3\n        /* \"#utility.yul\":2824:2836   */\n      add\n        /* \"#utility.yul\":2817:2836   */\n      swap2\n      pop\n        /* \"#utility.yul\":2853:2856   */\n      dup2\n        /* \"#utility.yul\":2846:2856   */\n      swap1\n      pop\n        /* \"#utility.yul\":2465:2862   */\n      swap4\n      swap3\n      pop\n      pop\n      pop\n      jump\t// out\n        /* \"#utility.yul\":2868:3542   */\n    tag_54:\n        /* \"#utility.yul\":3062:3065   */\n      0x00\n        /* \"#utility.yul\":3077:3150   */\n      tag_110\n        /* \"#utility.yul\":3146:3149   */\n      dup3\n        /* \"#utility.yul\":3137:3143   */\n      dup8\n        /* \"#utility.yul\":3077:3150   */\n      tag_83\n      jump\t// in\n    tag_110:\n        /* \"#utility.yul\":3175:3176   */\n      0x01\n        /* \"#utility.yul\":3170:3173   */\n      dup3\n        /* \"#utility.yul\":3166:3177   */\n      add\n        /* \"#utility.yul\":3159:3177   */\n      swap2\n      pop\n        /* \"#utility.yul\":3187:3262   */\n      tag_111\n        /* \"#utility.yul\":3258:3261   */\n      dup3\n        /* \"#utility.yul\":3249:3255   */\n      dup7\n        /* \"#utility.yul\":3187:3262   */\n      tag_78\n      jump\t// in\n    tag_111:\n        /* \"#utility.yul\":3287:3289   */\n      0x14\n        /* \"#utility.yul\":3282:3285   */\n      dup3\n        /* \"#utility.yul\":3278:3290   */\n      add\n        /* \"#utility.yul\":3271:3290   */\n      swap2\n      pop\n        /* \"#utility.yul\":3300:3375   */\n      tag_112\n        /* \"#utility.yul\":3371:3374   */\n      dup3\n        /* \"#utility.yul\":3362:3368   */\n      dup6\n        /* \"#utility.yul\":3300:3375   */\n      tag_89\n      jump\t// in\n    tag_112:\n        /* \"#utility.yul\":3400:3402   */\n      0x20\n        /* \"#utility.yul\":3395:3398   */\n      dup3\n        /* \"#utility.yul\":3391:3403   */\n      add\n        /* \"#utility.yul\":3384:3403   */\n      swap2\n      pop\n        /* \"#utility.yul\":3413:3488   */\n      tag_113\n        /* \"#utility.yul\":3484:3487   */\n      dup3\n        /* \"#utility.yul\":3475:3481   */\n      dup5\n        /* \"#utility.yul\":3413:3488   */\n      tag_89\n      jump\t// in\n    tag_113:\n        /* \"#utility.yul\":3513:3515   */\n      0x20\n        /* \"#utility.yul\":3508:3511   */\n      dup3\n        /* \"#utility.yul\":3504:3516   */\n      add\n        /* \"#utility.yul\":3497:3516   */\n      swap2\n      pop\n        /* \"#utility.yul\":3533:3536   */\n      dup2\n        /* \"#utility.yul\":3526:3536   */\n      swap1\n      pop\n        /* \"#utility.yul\":2868:3542   */\n      swap6\n      swap5\n      pop\n      pop\n      pop\n      pop\n      pop\n      jump\t// out\n        /* \"#utility.yul\":3548:3770   */\n    tag_12:\n        /* \"#utility.yul\":3641:3645   */\n      0x00\n        /* \"#utility.yul\":3679:3681   */\n      0x20\n        /* \"#utility.yul\":3668:3677   */\n      dup3\n        /* \"#utility.yul\":3664:3682   */\n      add\n        /* \"#utility.yul\":3656:3682   */\n      swap1\n      pop\n        /* \"#utility.yul\":3692:3763   */\n      tag_115\n        /* \"#utility.yul\":3760:3761   */\n      0x00\n        /* \"#utility.yul\":3749:3758   */\n      dup4\n        /* \"#utility.yul\":3745:3762   */\n      add\n        /* \"#utility.yul\":3736:3742   */\n      dup5\n        /* \"#utility.yul\":3692:3763   */\n      tag_74\n      jump\t// in\n    tag_115:\n        /* \"#utility.yul\":3548:3770   */\n      swap3\n      swap2\n      pop\n      pop\n      jump\t// out\n        /* \"#utility.yul\":3776:4108   */\n    tag_40:\n        /* \"#utility.yul\":3897:3901   */\n      0x00\n        /* \"#utility.yul\":3935:3937   */\n      0x40\n        /* \"#utility.yul\":3924:3933   */\n      dup3\n        /* \"#utility.yul\":3920:3938   */\n      add\n        /* \"#utility.yul\":3912:3938   */\n      swap1\n      pop\n        /* \"#utility.yul\":3948:4019   */\n      tag_117\n        /* \"#utility.yul\":4016:4017   */\n      0x00\n        /* \"#utility.yul\":4005:4014   */\n      dup4\n        /* \"#utility.yul\":4001:4018   */\n      add\n        /* \"#utility.yul\":3992:3998   */\n      dup6\n        /* \"#utility.yul\":3948:4019   */\n      tag_74\n      jump\t// in\n    tag_117:\n        /* \"#utility.yul\":4029:4101   */\n      tag_118\n        /* \"#utility.yul\":4097:4099   */\n      0x20\n        /* \"#utility.yul\":4086:4095   */\n      dup4\n        /* \"#utility.yul\":4082:4100   */\n      add\n        /* \"#utility.yul\":4073:4079   */\n      dup5\n        /* \"#utility.yul\":4029:4101   */\n      tag_74\n      jump\t// in\n    tag_118:\n        /* \"#utility.yul\":3776:4108   */\n      swap4\n      swap3\n      pop\n      pop\n      pop\n      jump\t// out\n        /* \"#utility.yul\":4114:4533   */\n    tag_48:\n        /* \"#utility.yul\":4280:4284   */\n      0x00\n        /* \"#utility.yul\":4318:4320   */\n      0x20\n        /* \"#utility.yul\":4307:4316   */\n      dup3\n        /* \"#utility.yul\":4303:4321   */\n      add\n        /* \"#utility.yul\":4295:4321   */\n      swap1\n      pop\n        /* \"#utility.yul\":4367:4376   */\n      dup2\n        /* \"#utility.yul\":4361:4365   */\n      dup2\n        /* \"#utility.yul\":4357:4377   */\n      sub\n        /* \"#utility.yul\":4353:4354   */\n      0x00\n        /* \"#utility.yul\":4342:4351   */\n      dup4\n        /* \"#utility.yul\":4338:4355   */\n      add\n        /* \"#utility.yul\":4331:4378   */\n      mstore\n        /* \"#utility.yul\":4395:4526   */\n      tag_120\n        /* \"#utility.yul\":4521:4525   */\n      dup2\n        /* \"#utility.yul\":4395:4526   */\n      tag_95\n      jump\t// in\n    tag_120:\n        /* \"#utility.yul\":4387:4526   */\n      swap1\n      pop\n        /* \"#utility.yul\":4114:4533   */\n      swap2\n      swap1\n      pop\n      jump\t// out\n        /* \"#utility.yul\":4539:4958   */\n    tag_31:\n        /* \"#utility.yul\":4705:4709   */\n      0x00\n        /* \"#utility.yul\":4743:4745   */\n      0x20\n        /* \"#utility.yul\":4732:4741   */\n      dup3\n        /* \"#utility.yul\":4728:4746   */\n      add\n        /* \"#utility.yul\":4720:4746   */\n      swap1\n      pop\n        /* \"#utility.yul\":4792:4801   */\n      dup2\n        /* \"#utility.yul\":4786:4790   */\n      dup2\n        /* \"#utility.yul\":4782:4802   */\n      sub\n        /* \"#utility.yul\":4778:4779   */\n      0x00\n        /* \"#utility.yul\":4767:4776   */\n      dup4\n        /* \"#utility.yul\":4763:4780   */\n      add\n        /* \"#utility.yul\":4756:4803   */\n      mstore\n        /* \"#utility.yul\":4820:4951   */\n      tag_122\n        /* \"#utility.yul\":4946:4950   */\n      dup2\n        /* \"#utility.yul\":4820:4951   */\n      tag_101\n      jump\t// in\n    tag_122:\n        /* \"#utility.yul\":4812:4951   */\n      swap1\n      pop\n        /* \"#utility.yul\":4539:4958   */\n      swap2\n      swap1\n      pop\n      jump\t// out\n        /* \"#utility.yul\":5045:5214   */\n    tag_98:\n        /* \"#utility.yul\":5129:5140   */\n      0x00\n        /* \"#utility.yul\":5163:5169   */\n      dup3\n        /* \"#utility.yul\":5158:5161   */\n      dup3\n        /* \"#utility.yul\":5151:5170   */\n      mstore\n        /* \"#utility.yul\":5203:5207   */\n      0x20\n        /* \"#utility.yul\":5198:5201   */\n      dup3\n        /* \"#utility.yul\":5194:5208   */\n      add\n        /* \"#utility.yul\":5179:5208   */\n      swap1\n      pop\n        /* \"#utility.yul\":5045:5214   */\n      swap3\n      swap2\n      pop\n      pop\n      jump\t// out\n        /* \"#utility.yul\":5220:5316   */\n    tag_77:\n        /* \"#utility.yul\":5257:5264   */\n      0x00\n        /* \"#utility.yul\":5286:5310   */\n      tag_127\n        /* \"#utility.yul\":5304:5309   */\n      dup3\n        /* \"#utility.yul\":5286:5310   */\n      tag_128\n      jump\t// in\n    tag_127:\n        /* \"#utility.yul\":5275:5310   */\n      swap1\n      pop\n        /* \"#utility.yul\":5220:5316   */\n      swap2\n      swap1\n      pop\n      jump\t// out\n        /* \"#utility.yul\":5322:5471   */\n    tag_87:\n        /* \"#utility.yul\":5358:5365   */\n      0x00\n        /* \"#utility.yul\":5398:5464   */\n      0xff00000000000000000000000000000000000000000000000000000000000000\n        /* \"#utility.yul\":5391:5396   */\n      dup3\n        /* \"#utility.yul\":5387:5465   */\n      and\n        /* \"#utility.yul\":5376:5465   */\n      swap1\n      pop\n        /* \"#utility.yul\":5322:5471   */\n      swap2\n      swap1\n      pop\n      jump\t// out\n        /* \"#utility.yul\":5477:5554   */\n    tag_93:\n        /* \"#utility.yul\":5514:5521   */\n      0x00\n        /* \"#utility.yul\":5543:5548   */\n      dup2\n        /* \"#utility.yul\":5532:5548   */\n      swap1\n      pop\n        /* \"#utility.yul\":5477:5554   */\n      swap2\n      swap1\n      pop\n      jump\t// out\n        /* \"#utility.yul\":5560:5686   */\n    tag_128:\n        /* \"#utility.yul\":5597:5604   */\n      0x00\n        /* \"#utility.yul\":5637:5679   */\n      0xffffffffffffffffffffffffffffffffffffffff\n        /* \"#utility.yul\":5630:5635   */\n      dup3\n        /* \"#utility.yul\":5626:5680   */\n      and\n        /* \"#utility.yul\":5615:5680   */\n      swap1\n      pop\n        /* \"#utility.yul\":5560:5686   */\n      swap2\n      swap1\n      pop\n      jump\t// out\n        /* \"#utility.yul\":5692:5769   */\n    tag_132:\n        /* \"#utility.yul\":5729:5736   */\n      0x00\n        /* \"#utility.yul\":5758:5763   */\n      dup2\n        /* \"#utility.yul\":5747:5763   */\n      swap1\n      pop\n        /* \"#utility.yul\":5692:5769   */\n      swap2\n      swap1\n      pop\n      jump\t// out\n        /* \"#utility.yul\":5775:5875   */\n    tag_82:\n        /* \"#utility.yul\":5814:5821   */\n      0x00\n        /* \"#utility.yul\":5843:5869   */\n      tag_135\n        /* \"#utility.yul\":5863:5868   */\n      dup3\n        /* \"#utility.yul\":5843:5869   */\n      tag_136\n      jump\t// in\n    tag_135:\n        /* \"#utility.yul\":5832:5869   */\n      swap1\n      pop\n        /* \"#utility.yul\":5775:5875   */\n      swap2\n      swap1\n      pop\n      jump\t// out\n        /* \"#utility.yul\":5881:5959   */\n    tag_88:\n        /* \"#utility.yul\":5919:5926   */\n      0x00\n        /* \"#utility.yul\":5948:5953   */\n      dup2\n        /* \"#utility.yul\":5937:5953   */\n      swap1\n      pop\n        /* \"#utility.yul\":5881:5959   */\n      swap2\n      swap1\n      pop\n      jump\t// out\n        /* \"#utility.yul\":5965:6044   */\n    tag_94:\n        /* \"#utility.yul\":6004:6011   */\n      0x00\n        /* \"#utility.yul\":6033:6038   */\n      dup2\n        /* \"#utility.yul\":6022:6038   */\n      swap1\n      pop\n        /* \"#utility.yul\":5965:6044   */\n      swap2\n      swap1\n      pop\n      jump\t// out\n        /* \"#utility.yul\":6050:6144   */\n    tag_136:\n        /* \"#utility.yul\":6089:6096   */\n      0x00\n        /* \"#utility.yul\":6118:6138   */\n      tag_140\n        /* \"#utility.yul\":6132:6137   */\n      dup3\n        /* \"#utility.yul\":6118:6138   */\n      tag_141\n      jump\t// in\n    tag_140:\n        /* \"#utility.yul\":6107:6138   */\n      swap1\n      pop\n        /* \"#utility.yul\":6050:6144   */\n      swap2\n      swap1\n      pop\n      jump\t// out\n        /* \"#utility.yul\":6273:6390   */\n    tag_67:\n        /* \"#utility.yul\":6382:6383   */\n      0x00\n        /* \"#utility.yul\":6379:6380   */\n      dup1\n        /* \"#utility.yul\":6372:6384   */\n      revert\n        /* \"#utility.yul\":6396:6490   */\n    tag_141:\n        /* \"#utility.yul\":6429:6437   */\n      0x00\n        /* \"#utility.yul\":6477:6482   */\n      dup2\n        /* \"#utility.yul\":6473:6475   */\n      0x60\n        /* \"#utility.yul\":6469:6483   */\n      shl\n        /* \"#utility.yul\":6448:6483   */\n      swap1\n      pop\n        /* \"#utility.yul\":6396:6490   */\n      swap2\n      swap1\n      pop\n      jump\t// out\n        /* \"#utility.yul\":6496:6665   */\n    tag_100:\n        /* \"#utility.yul\":6636:6657   */\n      0x4944454e544943414c5f41444452455353455300000000000000000000000000\n        /* \"#utility.yul\":6632:6633   */\n      0x00\n        /* \"#utility.yul\":6624:6630   */\n      dup3\n        /* \"#utility.yul\":6620:6634   */\n      add\n        /* \"#utility.yul\":6613:6658   */\n      mstore\n        /* \"#utility.yul\":6496:6665   */\n      pop\n      jump\t// out\n        /* \"#utility.yul\":6671:6838   */\n    tag_105:\n        /* \"#utility.yul\":6811:6830   */\n      0x4944454e544943414c5f41444452455353000000000000000000000000000000\n        /* \"#utility.yul\":6807:6808   */\n      0x00\n        /* \"#utility.yul\":6799:6805   */\n      dup3\n        /* \"#utility.yul\":6795:6809   */\n      add\n        /* \"#utility.yul\":6788:6831   */\n      mstore\n        /* \"#utility.yul\":6671:6838   */\n      pop\n      jump\t// out\n        /* \"#utility.yul\":6844:6966   */\n    tag_59:\n        /* \"#utility.yul\":6917:6941   */\n      tag_149\n        /* \"#utility.yul\":6935:6940   */\n      dup2\n        /* \"#utility.yul\":6917:6941   */\n      tag_77\n      jump\t// in\n    tag_149:\n        /* \"#utility.yul\":6910:6915   */\n      dup2\n        /* \"#utility.yul\":6907:6942   */\n      eq\n        /* \"#utility.yul\":6897:6960   */\n      tag_150\n      jumpi\n        /* \"#utility.yul\":6956:6957   */\n      0x00\n        /* \"#utility.yul\":6953:6954   */\n      dup1\n        /* \"#utility.yul\":6946:6958   */\n      revert\n        /* \"#utility.yul\":6897:6960   */\n    tag_150:\n        /* \"#utility.yul\":6844:6966   */\n      pop\n      jump\t// out\n        /* \"#utility.yul\":6972:7094   */\n    tag_63:\n        /* \"#utility.yul\":7045:7069   */\n      tag_152\n        /* \"#utility.yul\":7063:7068   */\n      dup2\n        /* \"#utility.yul\":7045:7069   */\n      tag_132\n      jump\t// in\n    tag_152:\n        /* \"#utility.yul\":7038:7043   */\n      dup2\n        /* \"#utility.yul\":7035:7070   */\n      eq\n        /* \"#utility.yul\":7025:7088   */\n      tag_153\n      jumpi\n        /* \"#utility.yul\":7084:7085   */\n      0x00\n        /* \"#utility.yul\":7081:7082   */\n      dup1\n        /* \"#utility.yul\":7074:7086   */\n      revert\n        /* \"#utility.yul\":7025:7088   */\n    tag_153:\n        /* \"#utility.yul\":6972:7094   */\n      pop\n      jump\t// out\n    stop\n\n    sub_0: assembly {\n            /* \"tutorial/Create2.sol\":60:539  contract Pair{\r... */\n          mstore(0x40, 0x80)\n            /* \"tutorial/Create2.sol\":243:253  msg.sender */\n          caller\n            /* \"tutorial/Create2.sol\":233:240  factory */\n          0x00\n          dup1\n            /* \"tutorial/Create2.sol\":233:253  factory = msg.sender */\n          0x0100\n          exp\n          dup2\n          sload\n          dup2\n          0xffffffffffffffffffffffffffffffffffffffff\n          mul\n          not\n          and\n          swap1\n          dup4\n          0xffffffffffffffffffffffffffffffffffffffff\n          and\n          mul\n          or\n          swap1\n          sstore\n          pop\n            /* \"tutorial/Create2.sol\":60:539  contract Pair{\r... */\n          dataSize(sub_0)\n          dup1\n          dataOffset(sub_0)\n          0x00\n          codecopy\n          0x00\n          return\n        stop\n\n        sub_0: assembly {\n                /* \"tutorial/Create2.sol\":60:539  contract Pair{\r... */\n              mstore(0x40, 0x80)\n              callvalue\n              dup1\n              iszero\n              tag_1\n              jumpi\n              0x00\n              dup1\n              revert\n            tag_1:\n              pop\n              jumpi(tag_2, lt(calldatasize, 0x04))\n              shr(0xe0, calldataload(0x00))\n              dup1\n              0x0dfe1681\n              eq\n              tag_3\n              jumpi\n              dup1\n              0x485cc955\n              eq\n              tag_4\n              jumpi\n              dup1\n              0xc45a0155\n              eq\n              tag_5\n              jumpi\n              dup1\n              0xd21220a7\n              eq\n              tag_6\n              jumpi\n            tag_2:\n              0x00\n              dup1\n              revert\n                /* \"tutorial/Create2.sol\":140:161  address public token0 */\n            tag_3:\n              tag_7\n              tag_8\n              jump\t// in\n            tag_7:\n              mload(0x40)\n              tag_9\n              swap2\n              swap1\n              tag_10\n              jump\t// in\n            tag_9:\n              mload(0x40)\n              dup1\n              swap2\n              sub\n              swap1\n              return\n                /* \"tutorial/Create2.sol\":326:536  function initialize(address _token0, address _token1) external {\r... */\n            tag_4:\n              tag_11\n              0x04\n              dup1\n              calldatasize\n              sub\n              dup2\n              add\n              swap1\n              tag_12\n              swap2\n              swap1\n              tag_13\n              jump\t// in\n            tag_12:\n              tag_14\n              jump\t// in\n            tag_11:\n              stop\n                /* \"tutorial/Create2.sol\":80:102  address public factory */\n            tag_5:\n              tag_15\n              tag_16\n              jump\t// in\n            tag_15:\n              mload(0x40)\n              tag_17\n              swap2\n              swap1\n              tag_10\n              jump\t// in\n            tag_17:\n              mload(0x40)\n              dup1\n              swap2\n              sub\n              swap1\n              return\n                /* \"tutorial/Create2.sol\":169:190  address public token1 */\n            tag_6:\n              tag_18\n              tag_19\n              jump\t// in\n            tag_18:\n              mload(0x40)\n              tag_20\n              swap2\n              swap1\n              tag_10\n              jump\t// in\n            tag_20:\n              mload(0x40)\n              dup1\n              swap2\n              sub\n              swap1\n              return\n                /* \"tutorial/Create2.sol\":140:161  address public token0 */\n            tag_8:\n              0x01\n              0x00\n              swap1\n              sload\n              swap1\n              0x0100\n              exp\n              swap1\n              div\n              0xffffffffffffffffffffffffffffffffffffffff\n              and\n              dup2\n              jump\t// out\n                /* \"tutorial/Create2.sol\":326:536  function initialize(address _token0, address _token1) external {\r... */\n            tag_14:\n                /* \"tutorial/Create2.sol\":422:429  factory */\n              0x00\n              dup1\n              sload\n              swap1\n              0x0100\n              exp\n              swap1\n              div\n              0xffffffffffffffffffffffffffffffffffffffff\n              and\n                /* \"tutorial/Create2.sol\":408:429  msg.sender == factory */\n              0xffffffffffffffffffffffffffffffffffffffff\n              and\n                /* \"tutorial/Create2.sol\":408:418  msg.sender */\n              caller\n                /* \"tutorial/Create2.sol\":408:429  msg.sender == factory */\n              0xffffffffffffffffffffffffffffffffffffffff\n              and\n              eq\n                /* \"tutorial/Create2.sol\":400:454  require(msg.sender == factory, 'UniswapV2: FORBIDDEN') */\n              tag_22\n              jumpi\n              mload(0x40)\n              0x08c379a000000000000000000000000000000000000000000000000000000000\n              dup2\n              mstore\n              0x04\n              add\n              tag_23\n              swap1\n              tag_24\n              jump\t// in\n            tag_23:\n              mload(0x40)\n              dup1\n              swap2\n              sub\n              swap1\n              revert\n            tag_22:\n                /* \"tutorial/Create2.sol\":494:501  _token0 */\n              dup2\n                /* \"tutorial/Create2.sol\":485:491  token0 */\n              0x01\n              0x00\n                /* \"tutorial/Create2.sol\":485:501  token0 = _token0 */\n              0x0100\n              exp\n              dup2\n              sload\n              dup2\n              0xffffffffffffffffffffffffffffffffffffffff\n              mul\n              not\n              and\n              swap1\n              dup4\n              0xffffffffffffffffffffffffffffffffffffffff\n              and\n              mul\n              or\n              swap1\n              sstore\n              pop\n                /* \"tutorial/Create2.sol\":521:528  _token1 */\n              dup1\n                /* \"tutorial/Create2.sol\":512:518  token1 */\n              0x02\n              0x00\n                /* \"tutorial/Create2.sol\":512:528  token1 = _token1 */\n              0x0100\n              exp\n              dup2\n              sload\n              dup2\n              0xffffffffffffffffffffffffffffffffffffffff\n              mul\n              not\n              and\n              swap1\n              dup4\n              0xffffffffffffffffffffffffffffffffffffffff\n              and\n              mul\n              or\n              swap1\n              sstore\n              pop\n                /* \"tutorial/Create2.sol\":326:536  function initialize(address _token0, address _token1) external {\r... */\n              pop\n              pop\n              jump\t// out\n                /* \"tutorial/Create2.sol\":80:102  address public factory */\n            tag_16:\n              0x00\n              dup1\n              sload\n              swap1\n              0x0100\n              exp\n              swap1\n              div\n              0xffffffffffffffffffffffffffffffffffffffff\n              and\n              dup2\n              jump\t// out\n                /* \"tutorial/Create2.sol\":169:190  address public token1 */\n            tag_19:\n              0x02\n              0x00\n              swap1\n              sload\n              swap1\n              0x0100\n              exp\n              swap1\n              div\n              0xffffffffffffffffffffffffffffffffffffffff\n              and\n              dup2\n              jump\t// out\n                /* \"#utility.yul\":7:146   */\n            tag_26:\n                /* \"#utility.yul\":53:58   */\n              0x00\n                /* \"#utility.yul\":91:97   */\n              dup2\n                /* \"#utility.yul\":78:98   */\n              calldataload\n                /* \"#utility.yul\":69:98   */\n              swap1\n              pop\n                /* \"#utility.yul\":107:140   */\n              tag_28\n                /* \"#utility.yul\":134:139   */\n              dup2\n                /* \"#utility.yul\":107:140   */\n              tag_29\n              jump\t// in\n            tag_28:\n                /* \"#utility.yul\":7:146   */\n              swap3\n              swap2\n              pop\n              pop\n              jump\t// out\n                /* \"#utility.yul\":152:626   */\n            tag_13:\n                /* \"#utility.yul\":220:226   */\n              0x00\n                /* \"#utility.yul\":228:234   */\n              dup1\n                /* \"#utility.yul\":277:279   */\n              0x40\n                /* \"#utility.yul\":265:274   */\n              dup4\n                /* \"#utility.yul\":256:263   */\n              dup6\n                /* \"#utility.yul\":252:275   */\n              sub\n                /* \"#utility.yul\":248:280   */\n              slt\n                /* \"#utility.yul\":245:364   */\n              iszero\n              tag_31\n              jumpi\n                /* \"#utility.yul\":283:362   */\n              tag_32\n              tag_33\n              jump\t// in\n            tag_32:\n                /* \"#utility.yul\":245:364   */\n            tag_31:\n                /* \"#utility.yul\":403:404   */\n              0x00\n                /* \"#utility.yul\":428:481   */\n              tag_34\n                /* \"#utility.yul\":473:480   */\n              dup6\n                /* \"#utility.yul\":464:470   */\n              dup3\n                /* \"#utility.yul\":453:462   */\n              dup7\n                /* \"#utility.yul\":449:471   */\n              add\n                /* \"#utility.yul\":428:481   */\n              tag_26\n              jump\t// in\n            tag_34:\n                /* \"#utility.yul\":418:481   */\n              swap3\n              pop\n                /* \"#utility.yul\":374:491   */\n              pop\n                /* \"#utility.yul\":530:532   */\n              0x20\n                /* \"#utility.yul\":556:609   */\n              tag_35\n                /* \"#utility.yul\":601:608   */\n              dup6\n                /* \"#utility.yul\":592:598   */\n              dup3\n                /* \"#utility.yul\":581:590   */\n              dup7\n                /* \"#utility.yul\":577:599   */\n              add\n                /* \"#utility.yul\":556:609   */\n              tag_26\n              jump\t// in\n            tag_35:\n                /* \"#utility.yul\":546:609   */\n              swap2\n              pop\n                /* \"#utility.yul\":501:619   */\n              pop\n                /* \"#utility.yul\":152:626   */\n              swap3\n              pop\n              swap3\n              swap1\n              pop\n              jump\t// out\n                /* \"#utility.yul\":632:750   */\n            tag_36:\n                /* \"#utility.yul\":719:743   */\n              tag_38\n                /* \"#utility.yul\":737:742   */\n              dup2\n                /* \"#utility.yul\":719:743   */\n              tag_39\n              jump\t// in\n            tag_38:\n                /* \"#utility.yul\":714:717   */\n              dup3\n                /* \"#utility.yul\":707:744   */\n              mstore\n                /* \"#utility.yul\":632:750   */\n              pop\n              pop\n              jump\t// out\n                /* \"#utility.yul\":756:1122   */\n            tag_40:\n                /* \"#utility.yul\":898:901   */\n              0x00\n                /* \"#utility.yul\":919:986   */\n              tag_42\n                /* \"#utility.yul\":983:985   */\n              0x14\n                /* \"#utility.yul\":978:981   */\n              dup4\n                /* \"#utility.yul\":919:986   */\n              tag_43\n              jump\t// in\n            tag_42:\n                /* \"#utility.yul\":912:986   */\n              swap2\n              pop\n                /* \"#utility.yul\":995:1088   */\n              tag_44\n                /* \"#utility.yul\":1084:1087   */\n              dup3\n                /* \"#utility.yul\":995:1088   */\n              tag_45\n              jump\t// in\n            tag_44:\n                /* \"#utility.yul\":1113:1115   */\n              0x20\n                /* \"#utility.yul\":1108:1111   */\n              dup3\n                /* \"#utility.yul\":1104:1116   */\n              add\n                /* \"#utility.yul\":1097:1116   */\n              swap1\n              pop\n                /* \"#utility.yul\":756:1122   */\n              swap2\n              swap1\n              pop\n              jump\t// out\n                /* \"#utility.yul\":1128:1350   */\n            tag_10:\n                /* \"#utility.yul\":1221:1225   */\n              0x00\n                /* \"#utility.yul\":1259:1261   */\n              0x20\n                /* \"#utility.yul\":1248:1257   */\n              dup3\n                /* \"#utility.yul\":1244:1262   */\n              add\n                /* \"#utility.yul\":1236:1262   */\n              swap1\n              pop\n                /* \"#utility.yul\":1272:1343   */\n              tag_47\n                /* \"#utility.yul\":1340:1341   */\n              0x00\n                /* \"#utility.yul\":1329:1338   */\n              dup4\n                /* \"#utility.yul\":1325:1342   */\n              add\n                /* \"#utility.yul\":1316:1322   */\n              dup5\n                /* \"#utility.yul\":1272:1343   */\n              tag_36\n              jump\t// in\n            tag_47:\n                /* \"#utility.yul\":1128:1350   */\n              swap3\n              swap2\n              pop\n              pop\n              jump\t// out\n                /* \"#utility.yul\":1356:1775   */\n            tag_24:\n                /* \"#utility.yul\":1522:1526   */\n              0x00\n                /* \"#utility.yul\":1560:1562   */\n              0x20\n                /* \"#utility.yul\":1549:1558   */\n              dup3\n                /* \"#utility.yul\":1545:1563   */\n              add\n                /* \"#utility.yul\":1537:1563   */\n              swap1\n              pop\n                /* \"#utility.yul\":1609:1618   */\n              dup2\n                /* \"#utility.yul\":1603:1607   */\n              dup2\n                /* \"#utility.yul\":1599:1619   */\n              sub\n                /* \"#utility.yul\":1595:1596   */\n              0x00\n                /* \"#utility.yul\":1584:1593   */\n              dup4\n                /* \"#utility.yul\":1580:1597   */\n              add\n                /* \"#utility.yul\":1573:1620   */\n              mstore\n                /* \"#utility.yul\":1637:1768   */\n              tag_49\n                /* \"#utility.yul\":1763:1767   */\n              dup2\n                /* \"#utility.yul\":1637:1768   */\n              tag_40\n              jump\t// in\n            tag_49:\n                /* \"#utility.yul\":1629:1768   */\n              swap1\n              pop\n                /* \"#utility.yul\":1356:1775   */\n              swap2\n              swap1\n              pop\n              jump\t// out\n                /* \"#utility.yul\":1862:2031   */\n            tag_43:\n                /* \"#utility.yul\":1946:1957   */\n              0x00\n                /* \"#utility.yul\":1980:1986   */\n              dup3\n                /* \"#utility.yul\":1975:1978   */\n              dup3\n                /* \"#utility.yul\":1968:1987   */\n              mstore\n                /* \"#utility.yul\":2020:2024   */\n              0x20\n                /* \"#utility.yul\":2015:2018   */\n              dup3\n                /* \"#utility.yul\":2011:2025   */\n              add\n                /* \"#utility.yul\":1996:2025   */\n              swap1\n              pop\n                /* \"#utility.yul\":1862:2031   */\n              swap3\n              swap2\n              pop\n              pop\n              jump\t// out\n                /* \"#utility.yul\":2037:2133   */\n            tag_39:\n                /* \"#utility.yul\":2074:2081   */\n              0x00\n                /* \"#utility.yul\":2103:2127   */\n              tag_54\n                /* \"#utility.yul\":2121:2126   */\n              dup3\n                /* \"#utility.yul\":2103:2127   */\n              tag_55\n              jump\t// in\n            tag_54:\n                /* \"#utility.yul\":2092:2127   */\n              swap1\n              pop\n                /* \"#utility.yul\":2037:2133   */\n              swap2\n              swap1\n              pop\n              jump\t// out\n                /* \"#utility.yul\":2139:2265   */\n            tag_55:\n                /* \"#utility.yul\":2176:2183   */\n              0x00\n                /* \"#utility.yul\":2216:2258   */\n              0xffffffffffffffffffffffffffffffffffffffff\n                /* \"#utility.yul\":2209:2214   */\n              dup3\n                /* \"#utility.yul\":2205:2259   */\n              and\n                /* \"#utility.yul\":2194:2259   */\n              swap1\n              pop\n                /* \"#utility.yul\":2139:2265   */\n              swap2\n              swap1\n              pop\n              jump\t// out\n                /* \"#utility.yul\":2394:2511   */\n            tag_33:\n                /* \"#utility.yul\":2503:2504   */\n              0x00\n                /* \"#utility.yul\":2500:2501   */\n              dup1\n                /* \"#utility.yul\":2493:2505   */\n              revert\n                /* \"#utility.yul\":2517:2687   */\n            tag_45:\n                /* \"#utility.yul\":2657:2679   */\n              0x556e697377617056323a20464f5242494444454e000000000000000000000000\n                /* \"#utility.yul\":2653:2654   */\n              0x00\n                /* \"#utility.yul\":2645:2651   */\n              dup3\n                /* \"#utility.yul\":2641:2655   */\n              add\n                /* \"#utility.yul\":2634:2680   */\n              mstore\n                /* \"#utility.yul\":2517:2687   */\n              pop\n              jump\t// out\n                /* \"#utility.yul\":2693:2815   */\n            tag_29:\n                /* \"#utility.yul\":2766:2790   */\n              tag_62\n                /* \"#utility.yul\":2784:2789   */\n              dup2\n                /* \"#utility.yul\":2766:2790   */\n              tag_39\n              jump\t// in\n            tag_62:\n                /* \"#utility.yul\":2759:2764   */\n              dup2\n                /* \"#utility.yul\":2756:2791   */\n              eq\n                /* \"#utility.yul\":2746:2809   */\n              tag_63\n              jumpi\n                /* \"#utility.yul\":2805:2806   */\n              0x00\n                /* \"#utility.yul\":2802:2803   */\n              dup1\n                /* \"#utility.yul\":2795:2807   */\n              revert\n                /* \"#utility.yul\":2746:2809   */\n            tag_63:\n                /* \"#utility.yul\":2693:2815   */\n              pop\n              jump\t// out\n\n            auxdata: 0xa26469706673582212203121bb89c104aab54d707ab912dd2b3ddd39145ad1586a2c2d9bc28f9f4a7c8964736f6c63430008070033\n        }\n    }\n\n    auxdata: 0xa2646970667358221220e351f62de3c4bc1dffa0c1cf4ee994315081525ea2e30252d9157d4e3f79521064736f6c63430008070033\n}\n",
				"bytecode": {
					"linkReferences": {},
					"object": "608060405234801561001057600080fd5b50610e1f806100206000396000f3fe608060405234801561001057600080fd5b506004361061004c5760003560e01c80631e3dd18b146100515780639385018714610081578063df06b188146100b1578063e6a43905146100e1575b600080fd5b61006b600480360381019061006691906106b9565b610111565b60405161007891906107fa565b60405180910390f35b61009b60048036038101906100969190610679565b610150565b6040516100a891906107fa565b60405180910390f35b6100cb60048036038101906100c69190610679565b6104b5565b6040516100d891906107fa565b60405180910390f35b6100fb60048036038101906100f69190610679565b610600565b60405161010891906107fa565b60405180910390f35b6001818154811061012157600080fd5b906000526020600020016000915054906101000a900473ffffffffffffffffffffffffffffffffffffffff1681565b60008173ffffffffffffffffffffffffffffffffffffffff168373ffffffffffffffffffffffffffffffffffffffff1614156101c1576040517f08c379a00000000000000000000000000000000000000000000000000000000081526004016101b89061085e565b60405180910390fd5b6000808373ffffffffffffffffffffffffffffffffffffffff168573ffffffffffffffffffffffffffffffffffffffff16106101fe578385610201565b84845b915091506000828260405160200161021a929190610780565b60405160208183030381529060405280519060200120905060008160405161024190610642565b8190604051809103906000f5905080158015610261573d6000803e3d6000fd5b5090508073ffffffffffffffffffffffffffffffffffffffff1663485cc95588886040518363ffffffff1660e01b815260040161029f929190610815565b600060405180830381600087803b1580156102b957600080fd5b505af11580156102cd573d6000803e3d6000fd5b505050508094506001859080600181540180825580915050600190039060005260206000200160009091909190916101000a81548173ffffffffffffffffffffffffffffffffffffffff021916908373ffffffffffffffffffffffffffffffffffffffff160217905550846000808973ffffffffffffffffffffffffffffffffffffffff1673ffffffffffffffffffffffffffffffffffffffff16815260200190815260200160002060008873ffffffffffffffffffffffffffffffffffffffff1673ffffffffffffffffffffffffffffffffffffffff16815260200190815260200160002060006101000a81548173ffffffffffffffffffffffffffffffffffffffff021916908373ffffffffffffffffffffffffffffffffffffffff160217905550846000808873ffffffffffffffffffffffffffffffffffffffff1673ffffffffffffffffffffffffffffffffffffffff16815260200190815260200160002060008973ffffffffffffffffffffffffffffffffffffffff1673ffffffffffffffffffffffffffffffffffffffff16815260200190815260200160002060006101000a81548173ffffffffffffffffffffffffffffffffffffffff021916908373ffffffffffffffffffffffffffffffffffffffff1602179055505050505092915050565b60008173ffffffffffffffffffffffffffffffffffffffff168373ffffffffffffffffffffffffffffffffffffffff161415610526576040517f08c379a000000000000000000000000000000000000000000000000000000000815260040161051d9061083e565b60405180910390fd5b6000808373ffffffffffffffffffffffffffffffffffffffff168573ffffffffffffffffffffffffffffffffffffffff1610610563578385610566565b84845b915091506000828260405160200161057f929190610780565b60405160208183030381529060405280519060200120905060ff60f81b3082604051806020016105ae90610642565b6020820181038252601f19601f82011660405250805190602001206040516020016105dc94939291906107ac565b6040516020818303038152906040528051906020012060001c935050505092915050565b60006020528160005260406000206020528060005260406000206000915091509054906101000a900473ffffffffffffffffffffffffffffffffffffffff1681565b61041e806109cc83390190565b60008135905061065e8161099d565b92915050565b600081359050610673816109b4565b92915050565b600080604083850312156106905761068f610939565b5b600061069e8582860161064f565b92505060206106af8582860161064f565b9150509250929050565b6000602082840312156106cf576106ce610939565b5b60006106dd84828501610664565b91505092915050565b6106ef8161088f565b82525050565b6107066107018261088f565b610901565b82525050565b61071d610718826108a1565b610913565b82525050565b61073461072f826108cd565b61091d565b82525050565b600061074760138361087e565b91506107528261094b565b602082019050919050565b600061076a60118361087e565b915061077582610974565b602082019050919050565b600061078c82856106f5565b60148201915061079c82846106f5565b6014820191508190509392505050565b60006107b8828761070c565b6001820191506107c882866106f5565b6014820191506107d88285610723565b6020820191506107e88284610723565b60208201915081905095945050505050565b600060208201905061080f60008301846106e6565b92915050565b600060408201905061082a60008301856106e6565b61083760208301846106e6565b9392505050565b600060208201905081810360008301526108578161073a565b9050919050565b600060208201905081810360008301526108778161075d565b9050919050565b600082825260208201905092915050565b600061089a826108d7565b9050919050565b60007fff0000000000000000000000000000000000000000000000000000000000000082169050919050565b6000819050919050565b600073ffffffffffffffffffffffffffffffffffffffff82169050919050565b6000819050919050565b600061090c82610927565b9050919050565b6000819050919050565b6000819050919050565b60006109328261093e565b9050919050565b600080fd5b60008160601b9050919050565b7f4944454e544943414c5f41444452455353455300000000000000000000000000600082015250565b7f4944454e544943414c5f41444452455353000000000000000000000000000000600082015250565b6109a68161088f565b81146109b157600080fd5b50565b6109bd816108f7565b81146109c857600080fd5b5056fe6080604052336000806101000a81548173ffffffffffffffffffffffffffffffffffffffff021916908373ffffffffffffffffffffffffffffffffffffffff1602179055506103cb806100536000396000f3fe608060405234801561001057600080fd5b506004361061004c5760003560e01c80630dfe168114610051578063485cc9551461006f578063c45a01551461008b578063d21220a7146100a9575b600080fd5b6100596100c7565b60405161006691906102d2565b60405180910390f35b61008960048036038101906100849190610260565b6100ed565b005b610093610201565b6040516100a091906102d2565b60405180910390f35b6100b1610225565b6040516100be91906102d2565b60405180910390f35b600160009054906101000a900473ffffffffffffffffffffffffffffffffffffffff1681565b60008054906101000a900473ffffffffffffffffffffffffffffffffffffffff1673ffffffffffffffffffffffffffffffffffffffff163373ffffffffffffffffffffffffffffffffffffffff161461017b576040517f08c379a0000000000000000000000000000000000000000000000000000000008152600401610172906102ed565b60405180910390fd5b81600160006101000a81548173ffffffffffffffffffffffffffffffffffffffff021916908373ffffffffffffffffffffffffffffffffffffffff16021790555080600260006101000a81548173ffffffffffffffffffffffffffffffffffffffff021916908373ffffffffffffffffffffffffffffffffffffffff1602179055505050565b60008054906101000a900473ffffffffffffffffffffffffffffffffffffffff1681565b600260009054906101000a900473ffffffffffffffffffffffffffffffffffffffff1681565b60008135905061025a8161037e565b92915050565b6000806040838503121561027757610276610350565b5b60006102858582860161024b565b92505060206102968582860161024b565b9150509250929050565b6102a98161031e565b82525050565b60006102bc60148361030d565b91506102c782610355565b602082019050919050565b60006020820190506102e760008301846102a0565b92915050565b60006020820190508181036000830152610306816102af565b9050919050565b600082825260208201905092915050565b600061032982610330565b9050919050565b600073ffffffffffffffffffffffffffffffffffffffff82169050919050565b600080fd5b7f556e697377617056323a20464f5242494444454e000000000000000000000000600082015250565b6103878161031e565b811461039257600080fd5b5056fea26469706673582212203121bb89c104aab54d707ab912dd2b3ddd39145ad1586a2c2d9bc28f9f4a7c8964736f6c63430008070033a2646970667358221220e351f62de3c4bc1dffa0c1cf4ee994315081525ea2e30252d9157d4e3f79521064736f6c63430008070033",
					"opcodes": "PUSH1 0x80 PUSH1 0x40 MSTORE CALLVALUE DUP1 ISZERO PUSH2 0x10 JUMPI PUSH1 0x0 DUP1 REVERT JUMPDEST POP PUSH2 0xE1F DUP1 PUSH2 0x20 PUSH1 0x0 CODECOPY PUSH1 0x0 RETURN INVALID PUSH1 0x80 PUSH1 0x40 MSTORE CALLVALUE DUP1 ISZERO PUSH2 0x10 JUMPI PUSH1 0x0 DUP1 REVERT JUMPDEST POP PUSH1 0x4 CALLDATASIZE LT PUSH2 0x4C JUMPI PUSH1 0x0 CALLDATALOAD PUSH1 0xE0 SHR DUP1 PUSH4 0x1E3DD18B EQ PUSH2 0x51 JUMPI DUP1 PUSH4 0x93850187 EQ PUSH2 0x81 JUMPI DUP1 PUSH4 0xDF06B188 EQ PUSH2 0xB1 JUMPI DUP1 PUSH4 0xE6A43905 EQ PUSH2 0xE1 JUMPI JUMPDEST PUSH1 0x0 DUP1 REVERT JUMPDEST PUSH2 0x6B PUSH1 0x4 DUP1 CALLDATASIZE SUB DUP2 ADD SWAP1 PUSH2 0x66 SWAP2 SWAP1 PUSH2 0x6B9 JUMP JUMPDEST PUSH2 0x111 JUMP JUMPDEST PUSH1 0x40 MLOAD PUSH2 0x78 SWAP2 SWAP1 PUSH2 0x7FA JUMP JUMPDEST PUSH1 0x40 MLOAD DUP1 SWAP2 SUB SWAP1 RETURN JUMPDEST PUSH2 0x9B PUSH1 0x4 DUP1 CALLDATASIZE SUB DUP2 ADD SWAP1 PUSH2 0x96 SWAP2 SWAP1 PUSH2 0x679 JUMP JUMPDEST PUSH2 0x150 JUMP JUMPDEST PUSH1 0x40 MLOAD PUSH2 0xA8 SWAP2 SWAP1 PUSH2 0x7FA JUMP JUMPDEST PUSH1 0x40 MLOAD DUP1 SWAP2 SUB SWAP1 RETURN JUMPDEST PUSH2 0xCB PUSH1 0x4 DUP1 CALLDATASIZE SUB DUP2 ADD SWAP1 PUSH2 0xC6 SWAP2 SWAP1 PUSH2 0x679 JUMP JUMPDEST PUSH2 0x4B5 JUMP JUMPDEST PUSH1 0x40 MLOAD PUSH2 0xD8 SWAP2 SWAP1 PUSH2 0x7FA JUMP JUMPDEST PUSH1 0x40 MLOAD DUP1 SWAP2 SUB SWAP1 RETURN JUMPDEST PUSH2 0xFB PUSH1 0x4 DUP1 CALLDATASIZE SUB DUP2 ADD SWAP1 PUSH2 0xF6 SWAP2 SWAP1 PUSH2 0x679 JUMP JUMPDEST PUSH2 0x600 JUMP JUMPDEST PUSH1 0x40 MLOAD PUSH2 0x108 SWAP2 SWAP1 PUSH2 0x7FA JUMP JUMPDEST PUSH1 0x40 MLOAD DUP1 SWAP2 SUB SWAP1 RETURN JUMPDEST PUSH1 0x1 DUP2 DUP2 SLOAD DUP2 LT PUSH2 0x121 JUMPI PUSH1 0x0 DUP1 REVERT JUMPDEST SWAP1 PUSH1 0x0 MSTORE PUSH1 0x20 PUSH1 0x0 KECCAK256 ADD PUSH1 0x0 SWAP2 POP SLOAD SWAP1 PUSH2 0x100 EXP SWAP1 DIV PUSH20 0xFFFFFFFFFFFFFFFFFFFFFFFFFFFFFFFFFFFFFFFF AND DUP2 JUMP JUMPDEST PUSH1 0x0 DUP2 PUSH20 0xFFFFFFFFFFFFFFFFFFFFFFFFFFFFFFFFFFFFFFFF AND DUP4 PUSH20 0xFFFFFFFFFFFFFFFFFFFFFFFFFFFFFFFFFFFFFFFF AND EQ ISZERO PUSH2 0x1C1 JUMPI PUSH1 0x40 MLOAD PUSH32 0x8C379A000000000000000000000000000000000000000000000000000000000 DUP2 MSTORE PUSH1 0x4 ADD PUSH2 0x1B8 SWAP1 PUSH2 0x85E JUMP JUMPDEST PUSH1 0x40 MLOAD DUP1 SWAP2 SUB SWAP1 REVERT JUMPDEST PUSH1 0x0 DUP1 DUP4 PUSH20 0xFFFFFFFFFFFFFFFFFFFFFFFFFFFFFFFFFFFFFFFF AND DUP6 PUSH20 0xFFFFFFFFFFFFFFFFFFFFFFFFFFFFFFFFFFFFFFFF AND LT PUSH2 0x1FE JUMPI DUP4 DUP6 PUSH2 0x201 JUMP JUMPDEST DUP5 DUP5 JUMPDEST SWAP2 POP SWAP2 POP PUSH1 0x0 DUP3 DUP3 PUSH1 0x40 MLOAD PUSH1 0x20 ADD PUSH2 0x21A SWAP3 SWAP2 SWAP1 PUSH2 0x780 JUMP JUMPDEST PUSH1 0x40 MLOAD PUSH1 0x20 DUP2 DUP4 SUB SUB DUP2 MSTORE SWAP1 PUSH1 0x40 MSTORE DUP1 MLOAD SWAP1 PUSH1 0x20 ADD KECCAK256 SWAP1 POP PUSH1 0x0 DUP2 PUSH1 0x40 MLOAD PUSH2 0x241 SWAP1 PUSH2 0x642 JUMP JUMPDEST DUP2 SWAP1 PUSH1 0x40 MLOAD DUP1 SWAP2 SUB SWAP1 PUSH1 0x0 CREATE2 SWAP1 POP DUP1 ISZERO DUP1 ISZERO PUSH2 0x261 JUMPI RETURNDATASIZE PUSH1 0x0 DUP1 RETURNDATACOPY RETURNDATASIZE PUSH1 0x0 REVERT JUMPDEST POP SWAP1 POP DUP1 PUSH20 0xFFFFFFFFFFFFFFFFFFFFFFFFFFFFFFFFFFFFFFFF AND PUSH4 0x485CC955 DUP9 DUP9 PUSH1 0x40 MLOAD DUP4 PUSH4 0xFFFFFFFF AND PUSH1 0xE0 SHL DUP2 MSTORE PUSH1 0x4 ADD PUSH2 0x29F SWAP3 SWAP2 SWAP1 PUSH2 0x815 JUMP JUMPDEST PUSH1 0x0 PUSH1 0x40 MLOAD DUP1 DUP4 SUB DUP2 PUSH1 0x0 DUP8 DUP1 EXTCODESIZE ISZERO DUP1 ISZERO PUSH2 0x2B9 JUMPI PUSH1 0x0 DUP1 REVERT JUMPDEST POP GAS CALL ISZERO DUP1 ISZERO PUSH2 0x2CD JUMPI RETURNDATASIZE PUSH1 0x0 DUP1 RETURNDATACOPY RETURNDATASIZE PUSH1 0x0 REVERT JUMPDEST POP POP POP POP DUP1 SWAP5 POP PUSH1 0x1 DUP6 SWAP1 DUP1 PUSH1 0x1 DUP2 SLOAD ADD DUP1 DUP3 SSTORE DUP1 SWAP2 POP POP PUSH1 0x1 SWAP1 SUB SWAP1 PUSH1 0x0 MSTORE PUSH1 0x20 PUSH1 0x0 KECCAK256 ADD PUSH1 0x0 SWAP1 SWAP2 SWAP1 SWAP2 SWAP1 SWAP2 PUSH2 0x100 EXP DUP2 SLOAD DUP2 PUSH20 0xFFFFFFFFFFFFFFFFFFFFFFFFFFFFFFFFFFFFFFFF MUL NOT AND SWAP1 DUP4 PUSH20 0xFFFFFFFFFFFFFFFFFFFFFFFFFFFFFFFFFFFFFFFF AND MUL OR SWAP1 SSTORE POP DUP5 PUSH1 0x0 DUP1 DUP10 PUSH20 0xFFFFFFFFFFFFFFFFFFFFFFFFFFFFFFFFFFFFFFFF AND PUSH20 0xFFFFFFFFFFFFFFFFFFFFFFFFFFFFFFFFFFFFFFFF AND DUP2 MSTORE PUSH1 0x20 ADD SWAP1 DUP2 MSTORE PUSH1 0x20 ADD PUSH1 0x0 KECCAK256 PUSH1 0x0 DUP9 PUSH20 0xFFFFFFFFFFFFFFFFFFFFFFFFFFFFFFFFFFFFFFFF AND PUSH20 0xFFFFFFFFFFFFFFFFFFFFFFFFFFFFFFFFFFFFFFFF AND DUP2 MSTORE PUSH1 0x20 ADD SWAP1 DUP2 MSTORE PUSH1 0x20 ADD PUSH1 0x0 KECCAK256 PUSH1 0x0 PUSH2 0x100 EXP DUP2 SLOAD DUP2 PUSH20 0xFFFFFFFFFFFFFFFFFFFFFFFFFFFFFFFFFFFFFFFF MUL NOT AND SWAP1 DUP4 PUSH20 0xFFFFFFFFFFFFFFFFFFFFFFFFFFFFFFFFFFFFFFFF AND MUL OR SWAP1 SSTORE POP DUP5 PUSH1 0x0 DUP1 DUP9 PUSH20 0xFFFFFFFFFFFFFFFFFFFFFFFFFFFFFFFFFFFFFFFF AND PUSH20 0xFFFFFFFFFFFFFFFFFFFFFFFFFFFFFFFFFFFFFFFF AND DUP2 MSTORE PUSH1 0x20 ADD SWAP1 DUP2 MSTORE PUSH1 0x20 ADD PUSH1 0x0 KECCAK256 PUSH1 0x0 DUP10 PUSH20 0xFFFFFFFFFFFFFFFFFFFFFFFFFFFFFFFFFFFFFFFF AND PUSH20 0xFFFFFFFFFFFFFFFFFFFFFFFFFFFFFFFFFFFFFFFF AND DUP2 MSTORE PUSH1 0x20 ADD SWAP1 DUP2 MSTORE PUSH1 0x20 ADD PUSH1 0x0 KECCAK256 PUSH1 0x0 PUSH2 0x100 EXP DUP2 SLOAD DUP2 PUSH20 0xFFFFFFFFFFFFFFFFFFFFFFFFFFFFFFFFFFFFFFFF MUL NOT AND SWAP1 DUP4 PUSH20 0xFFFFFFFFFFFFFFFFFFFFFFFFFFFFFFFFFFFFFFFF AND MUL OR SWAP1 SSTORE POP POP POP POP POP SWAP3 SWAP2 POP POP JUMP JUMPDEST PUSH1 0x0 DUP2 PUSH20 0xFFFFFFFFFFFFFFFFFFFFFFFFFFFFFFFFFFFFFFFF AND DUP4 PUSH20 0xFFFFFFFFFFFFFFFFFFFFFFFFFFFFFFFFFFFFFFFF AND EQ ISZERO PUSH2 0x526 JUMPI PUSH1 0x40 MLOAD PUSH32 0x8C379A000000000000000000000000000000000000000000000000000000000 DUP2 MSTORE PUSH1 0x4 ADD PUSH2 0x51D SWAP1 PUSH2 0x83E JUMP JUMPDEST PUSH1 0x40 MLOAD DUP1 SWAP2 SUB SWAP1 REVERT JUMPDEST PUSH1 0x0 DUP1 DUP4 PUSH20 0xFFFFFFFFFFFFFFFFFFFFFFFFFFFFFFFFFFFFFFFF AND DUP6 PUSH20 0xFFFFFFFFFFFFFFFFFFFFFFFFFFFFFFFFFFFFFFFF AND LT PUSH2 0x563 JUMPI DUP4 DUP6 PUSH2 0x566 JUMP JUMPDEST DUP5 DUP5 JUMPDEST SWAP2 POP SWAP2 POP PUSH1 0x0 DUP3 DUP3 PUSH1 0x40 MLOAD PUSH1 0x20 ADD PUSH2 0x57F SWAP3 SWAP2 SWAP1 PUSH2 0x780 JUMP JUMPDEST PUSH1 0x40 MLOAD PUSH1 0x20 DUP2 DUP4 SUB SUB DUP2 MSTORE SWAP1 PUSH1 0x40 MSTORE DUP1 MLOAD SWAP1 PUSH1 0x20 ADD KECCAK256 SWAP1 POP PUSH1 0xFF PUSH1 0xF8 SHL ADDRESS DUP3 PUSH1 0x40 MLOAD DUP1 PUSH1 0x20 ADD PUSH2 0x5AE SWAP1 PUSH2 0x642 JUMP JUMPDEST PUSH1 0x20 DUP3 ADD DUP2 SUB DUP3 MSTORE PUSH1 0x1F NOT PUSH1 0x1F DUP3 ADD AND PUSH1 0x40 MSTORE POP DUP1 MLOAD SWAP1 PUSH1 0x20 ADD KECCAK256 PUSH1 0x40 MLOAD PUSH1 0x20 ADD PUSH2 0x5DC SWAP5 SWAP4 SWAP3 SWAP2 SWAP1 PUSH2 0x7AC JUMP JUMPDEST PUSH1 0x40 MLOAD PUSH1 0x20 DUP2 DUP4 SUB SUB DUP2 MSTORE SWAP1 PUSH1 0x40 MSTORE DUP1 MLOAD SWAP1 PUSH1 0x20 ADD KECCAK256 PUSH1 0x0 SHR SWAP4 POP POP POP POP SWAP3 SWAP2 POP POP JUMP JUMPDEST PUSH1 0x0 PUSH1 0x20 MSTORE DUP2 PUSH1 0x0 MSTORE PUSH1 0x40 PUSH1 0x0 KECCAK256 PUSH1 0x20 MSTORE DUP1 PUSH1 0x0 MSTORE PUSH1 0x40 PUSH1 0x0 KECCAK256 PUSH1 0x0 SWAP2 POP SWAP2 POP SWAP1 SLOAD SWAP1 PUSH2 0x100 EXP SWAP1 DIV PUSH20 0xFFFFFFFFFFFFFFFFFFFFFFFFFFFFFFFFFFFFFFFF AND DUP2 JUMP JUMPDEST PUSH2 0x41E DUP1 PUSH2 0x9CC DUP4 CODECOPY ADD SWAP1 JUMP JUMPDEST PUSH1 0x0 DUP2 CALLDATALOAD SWAP1 POP PUSH2 0x65E DUP2 PUSH2 0x99D JUMP JUMPDEST SWAP3 SWAP2 POP POP JUMP JUMPDEST PUSH1 0x0 DUP2 CALLDATALOAD SWAP1 POP PUSH2 0x673 DUP2 PUSH2 0x9B4 JUMP JUMPDEST SWAP3 SWAP2 POP POP JUMP JUMPDEST PUSH1 0x0 DUP1 PUSH1 0x40 DUP4 DUP6 SUB SLT ISZERO PUSH2 0x690 JUMPI PUSH2 0x68F PUSH2 0x939 JUMP JUMPDEST JUMPDEST PUSH1 0x0 PUSH2 0x69E DUP6 DUP3 DUP7 ADD PUSH2 0x64F JUMP JUMPDEST SWAP3 POP POP PUSH1 0x20 PUSH2 0x6AF DUP6 DUP3 DUP7 ADD PUSH2 0x64F JUMP JUMPDEST SWAP2 POP POP SWAP3 POP SWAP3 SWAP1 POP JUMP JUMPDEST PUSH1 0x0 PUSH1 0x20 DUP3 DUP5 SUB SLT ISZERO PUSH2 0x6CF JUMPI PUSH2 0x6CE PUSH2 0x939 JUMP JUMPDEST JUMPDEST PUSH1 0x0 PUSH2 0x6DD DUP5 DUP3 DUP6 ADD PUSH2 0x664 JUMP JUMPDEST SWAP2 POP POP SWAP3 SWAP2 POP POP JUMP JUMPDEST PUSH2 0x6EF DUP2 PUSH2 0x88F JUMP JUMPDEST DUP3 MSTORE POP POP JUMP JUMPDEST PUSH2 0x706 PUSH2 0x701 DUP3 PUSH2 0x88F JUMP JUMPDEST PUSH2 0x901 JUMP JUMPDEST DUP3 MSTORE POP POP JUMP JUMPDEST PUSH2 0x71D PUSH2 0x718 DUP3 PUSH2 0x8A1 JUMP JUMPDEST PUSH2 0x913 JUMP JUMPDEST DUP3 MSTORE POP POP JUMP JUMPDEST PUSH2 0x734 PUSH2 0x72F DUP3 PUSH2 0x8CD JUMP JUMPDEST PUSH2 0x91D JUMP JUMPDEST DUP3 MSTORE POP POP JUMP JUMPDEST PUSH1 0x0 PUSH2 0x747 PUSH1 0x13 DUP4 PUSH2 0x87E JUMP JUMPDEST SWAP2 POP PUSH2 0x752 DUP3 PUSH2 0x94B JUMP JUMPDEST PUSH1 0x20 DUP3 ADD SWAP1 POP SWAP2 SWAP1 POP JUMP JUMPDEST PUSH1 0x0 PUSH2 0x76A PUSH1 0x11 DUP4 PUSH2 0x87E JUMP JUMPDEST SWAP2 POP PUSH2 0x775 DUP3 PUSH2 0x974 JUMP JUMPDEST PUSH1 0x20 DUP3 ADD SWAP1 POP SWAP2 SWAP1 POP JUMP JUMPDEST PUSH1 0x0 PUSH2 0x78C DUP3 DUP6 PUSH2 0x6F5 JUMP JUMPDEST PUSH1 0x14 DUP3 ADD SWAP2 POP PUSH2 0x79C DUP3 DUP5 PUSH2 0x6F5 JUMP JUMPDEST PUSH1 0x14 DUP3 ADD SWAP2 POP DUP2 SWAP1 POP SWAP4 SWAP3 POP POP POP JUMP JUMPDEST PUSH1 0x0 PUSH2 0x7B8 DUP3 DUP8 PUSH2 0x70C JUMP JUMPDEST PUSH1 0x1 DUP3 ADD SWAP2 POP PUSH2 0x7C8 DUP3 DUP7 PUSH2 0x6F5 JUMP JUMPDEST PUSH1 0x14 DUP3 ADD SWAP2 POP PUSH2 0x7D8 DUP3 DUP6 PUSH2 0x723 JUMP JUMPDEST PUSH1 0x20 DUP3 ADD SWAP2 POP PUSH2 0x7E8 DUP3 DUP5 PUSH2 0x723 JUMP JUMPDEST PUSH1 0x20 DUP3 ADD SWAP2 POP DUP2 SWAP1 POP SWAP6 SWAP5 POP POP POP POP POP JUMP JUMPDEST PUSH1 0x0 PUSH1 0x20 DUP3 ADD SWAP1 POP PUSH2 0x80F PUSH1 0x0 DUP4 ADD DUP5 PUSH2 0x6E6 JUMP JUMPDEST SWAP3 SWAP2 POP POP JUMP JUMPDEST PUSH1 0x0 PUSH1 0x40 DUP3 ADD SWAP1 POP PUSH2 0x82A PUSH1 0x0 DUP4 ADD DUP6 PUSH2 0x6E6 JUMP JUMPDEST PUSH2 0x837 PUSH1 0x20 DUP4 ADD DUP5 PUSH2 0x6E6 JUMP JUMPDEST SWAP4 SWAP3 POP POP POP JUMP JUMPDEST PUSH1 0x0 PUSH1 0x20 DUP3 ADD SWAP1 POP DUP2 DUP2 SUB PUSH1 0x0 DUP4 ADD MSTORE PUSH2 0x857 DUP2 PUSH2 0x73A JUMP JUMPDEST SWAP1 POP SWAP2 SWAP1 POP JUMP JUMPDEST PUSH1 0x0 PUSH1 0x20 DUP3 ADD SWAP1 POP DUP2 DUP2 SUB PUSH1 0x0 DUP4 ADD MSTORE PUSH2 0x877 DUP2 PUSH2 0x75D JUMP JUMPDEST SWAP1 POP SWAP2 SWAP1 POP JUMP JUMPDEST PUSH1 0x0 DUP3 DUP3 MSTORE PUSH1 0x20 DUP3 ADD SWAP1 POP SWAP3 SWAP2 POP POP JUMP JUMPDEST PUSH1 0x0 PUSH2 0x89A DUP3 PUSH2 0x8D7 JUMP JUMPDEST SWAP1 POP SWAP2 SWAP1 POP JUMP JUMPDEST PUSH1 0x0 PUSH32 0xFF00000000000000000000000000000000000000000000000000000000000000 DUP3 AND SWAP1 POP SWAP2 SWAP1 POP JUMP JUMPDEST PUSH1 0x0 DUP2 SWAP1 POP SWAP2 SWAP1 POP JUMP JUMPDEST PUSH1 0x0 PUSH20 0xFFFFFFFFFFFFFFFFFFFFFFFFFFFFFFFFFFFFFFFF DUP3 AND SWAP1 POP SWAP2 SWAP1 POP JUMP JUMPDEST PUSH1 0x0 DUP2 SWAP1 POP SWAP2 SWAP1 POP JUMP JUMPDEST PUSH1 0x0 PUSH2 0x90C DUP3 PUSH2 0x927 JUMP JUMPDEST SWAP1 POP SWAP2 SWAP1 POP JUMP JUMPDEST PUSH1 0x0 DUP2 SWAP1 POP SWAP2 SWAP1 POP JUMP JUMPDEST PUSH1 0x0 DUP2 SWAP1 POP SWAP2 SWAP1 POP JUMP JUMPDEST PUSH1 0x0 PUSH2 0x932 DUP3 PUSH2 0x93E JUMP JUMPDEST SWAP1 POP SWAP2 SWAP1 POP JUMP JUMPDEST PUSH1 0x0 DUP1 REVERT JUMPDEST PUSH1 0x0 DUP2 PUSH1 0x60 SHL SWAP1 POP SWAP2 SWAP1 POP JUMP JUMPDEST PUSH32 0x4944454E544943414C5F41444452455353455300000000000000000000000000 PUSH1 0x0 DUP3 ADD MSTORE POP JUMP JUMPDEST PUSH32 0x4944454E544943414C5F41444452455353000000000000000000000000000000 PUSH1 0x0 DUP3 ADD MSTORE POP JUMP JUMPDEST PUSH2 0x9A6 DUP2 PUSH2 0x88F JUMP JUMPDEST DUP2 EQ PUSH2 0x9B1 JUMPI PUSH1 0x0 DUP1 REVERT JUMPDEST POP JUMP JUMPDEST PUSH2 0x9BD DUP2 PUSH2 0x8F7 JUMP JUMPDEST DUP2 EQ PUSH2 0x9C8 JUMPI PUSH1 0x0 DUP1 REVERT JUMPDEST POP JUMP INVALID PUSH1 0x80 PUSH1 0x40 MSTORE CALLER PUSH1 0x0 DUP1 PUSH2 0x100 EXP DUP2 SLOAD DUP2 PUSH20 0xFFFFFFFFFFFFFFFFFFFFFFFFFFFFFFFFFFFFFFFF MUL NOT AND SWAP1 DUP4 PUSH20 0xFFFFFFFFFFFFFFFFFFFFFFFFFFFFFFFFFFFFFFFF AND MUL OR SWAP1 SSTORE POP PUSH2 0x3CB DUP1 PUSH2 0x53 PUSH1 0x0 CODECOPY PUSH1 0x0 RETURN INVALID PUSH1 0x80 PUSH1 0x40 MSTORE CALLVALUE DUP1 ISZERO PUSH2 0x10 JUMPI PUSH1 0x0 DUP1 REVERT JUMPDEST POP PUSH1 0x4 CALLDATASIZE LT PUSH2 0x4C JUMPI PUSH1 0x0 CALLDATALOAD PUSH1 0xE0 SHR DUP1 PUSH4 0xDFE1681 EQ PUSH2 0x51 JUMPI DUP1 PUSH4 0x485CC955 EQ PUSH2 0x6F JUMPI DUP1 PUSH4 0xC45A0155 EQ PUSH2 0x8B JUMPI DUP1 PUSH4 0xD21220A7 EQ PUSH2 0xA9 JUMPI JUMPDEST PUSH1 0x0 DUP1 REVERT JUMPDEST PUSH2 0x59 PUSH2 0xC7 JUMP JUMPDEST PUSH1 0x40 MLOAD PUSH2 0x66 SWAP2 SWAP1 PUSH2 0x2D2 JUMP JUMPDEST PUSH1 0x40 MLOAD DUP1 SWAP2 SUB SWAP1 RETURN JUMPDEST PUSH2 0x89 PUSH1 0x4 DUP1 CALLDATASIZE SUB DUP2 ADD SWAP1 PUSH2 0x84 SWAP2 SWAP1 PUSH2 0x260 JUMP JUMPDEST PUSH2 0xED JUMP JUMPDEST STOP JUMPDEST PUSH2 0x93 PUSH2 0x201 JUMP JUMPDEST PUSH1 0x40 MLOAD PUSH2 0xA0 SWAP2 SWAP1 PUSH2 0x2D2 JUMP JUMPDEST PUSH1 0x40 MLOAD DUP1 SWAP2 SUB SWAP1 RETURN JUMPDEST PUSH2 0xB1 PUSH2 0x225 JUMP JUMPDEST PUSH1 0x40 MLOAD PUSH2 0xBE SWAP2 SWAP1 PUSH2 0x2D2 JUMP JUMPDEST PUSH1 0x40 MLOAD DUP1 SWAP2 SUB SWAP1 RETURN JUMPDEST PUSH1 0x1 PUSH1 0x0 SWAP1 SLOAD SWAP1 PUSH2 0x100 EXP SWAP1 DIV PUSH20 0xFFFFFFFFFFFFFFFFFFFFFFFFFFFFFFFFFFFFFFFF AND DUP2 JUMP JUMPDEST PUSH1 0x0 DUP1 SLOAD SWAP1 PUSH2 0x100 EXP SWAP1 DIV PUSH20 0xFFFFFFFFFFFFFFFFFFFFFFFFFFFFFFFFFFFFFFFF AND PUSH20 0xFFFFFFFFFFFFFFFFFFFFFFFFFFFFFFFFFFFFFFFF AND CALLER PUSH20 0xFFFFFFFFFFFFFFFFFFFFFFFFFFFFFFFFFFFFFFFF AND EQ PUSH2 0x17B JUMPI PUSH1 0x40 MLOAD PUSH32 0x8C379A000000000000000000000000000000000000000000000000000000000 DUP2 MSTORE PUSH1 0x4 ADD PUSH2 0x172 SWAP1 PUSH2 0x2ED JUMP JUMPDEST PUSH1 0x40 MLOAD DUP1 SWAP2 SUB SWAP1 REVERT JUMPDEST DUP2 PUSH1 0x1 PUSH1 0x0 PUSH2 0x100 EXP DUP2 SLOAD DUP2 PUSH20 0xFFFFFFFFFFFFFFFFFFFFFFFFFFFFFFFFFFFFFFFF MUL NOT AND SWAP1 DUP4 PUSH20 0xFFFFFFFFFFFFFFFFFFFFFFFFFFFFFFFFFFFFFFFF AND MUL OR SWAP1 SSTORE POP DUP1 PUSH1 0x2 PUSH1 0x0 PUSH2 0x100 EXP DUP2 SLOAD DUP2 PUSH20 0xFFFFFFFFFFFFFFFFFFFFFFFFFFFFFFFFFFFFFFFF MUL NOT AND SWAP1 DUP4 PUSH20 0xFFFFFFFFFFFFFFFFFFFFFFFFFFFFFFFFFFFFFFFF AND MUL OR SWAP1 SSTORE POP POP POP JUMP JUMPDEST PUSH1 0x0 DUP1 SLOAD SWAP1 PUSH2 0x100 EXP SWAP1 DIV PUSH20 0xFFFFFFFFFFFFFFFFFFFFFFFFFFFFFFFFFFFFFFFF AND DUP2 JUMP JUMPDEST PUSH1 0x2 PUSH1 0x0 SWAP1 SLOAD SWAP1 PUSH2 0x100 EXP SWAP1 DIV PUSH20 0xFFFFFFFFFFFFFFFFFFFFFFFFFFFFFFFFFFFFFFFF AND DUP2 JUMP JUMPDEST PUSH1 0x0 DUP2 CALLDATALOAD SWAP1 POP PUSH2 0x25A DUP2 PUSH2 0x37E JUMP JUMPDEST SWAP3 SWAP2 POP POP JUMP JUMPDEST PUSH1 0x0 DUP1 PUSH1 0x40 DUP4 DUP6 SUB SLT ISZERO PUSH2 0x277 JUMPI PUSH2 0x276 PUSH2 0x350 JUMP JUMPDEST JUMPDEST PUSH1 0x0 PUSH2 0x285 DUP6 DUP3 DUP7 ADD PUSH2 0x24B JUMP JUMPDEST SWAP3 POP POP PUSH1 0x20 PUSH2 0x296 DUP6 DUP3 DUP7 ADD PUSH2 0x24B JUMP JUMPDEST SWAP2 POP POP SWAP3 POP SWAP3 SWAP1 POP JUMP JUMPDEST PUSH2 0x2A9 DUP2 PUSH2 0x31E JUMP JUMPDEST DUP3 MSTORE POP POP JUMP JUMPDEST PUSH1 0x0 PUSH2 0x2BC PUSH1 0x14 DUP4 PUSH2 0x30D JUMP JUMPDEST SWAP2 POP PUSH2 0x2C7 DUP3 PUSH2 0x355 JUMP JUMPDEST PUSH1 0x20 DUP3 ADD SWAP1 POP SWAP2 SWAP1 POP JUMP JUMPDEST PUSH1 0x0 PUSH1 0x20 DUP3 ADD SWAP1 POP PUSH2 0x2E7 PUSH1 0x0 DUP4 ADD DUP5 PUSH2 0x2A0 JUMP JUMPDEST SWAP3 SWAP2 POP POP JUMP JUMPDEST PUSH1 0x0 PUSH1 0x20 DUP3 ADD SWAP1 POP DUP2 DUP2 SUB PUSH1 0x0 DUP4 ADD MSTORE PUSH2 0x306 DUP2 PUSH2 0x2AF JUMP JUMPDEST SWAP1 POP SWAP2 SWAP1 POP JUMP JUMPDEST PUSH1 0x0 DUP3 DUP3 MSTORE PUSH1 0x20 DUP3 ADD SWAP1 POP SWAP3 SWAP2 POP POP JUMP JUMPDEST PUSH1 0x0 PUSH2 0x329 DUP3 PUSH2 0x330 JUMP JUMPDEST SWAP1 POP SWAP2 SWAP1 POP JUMP JUMPDEST PUSH1 0x0 PUSH20 0xFFFFFFFFFFFFFFFFFFFFFFFFFFFFFFFFFFFFFFFF DUP3 AND SWAP1 POP SWAP2 SWAP1 POP JUMP JUMPDEST PUSH1 0x0 DUP1 REVERT JUMPDEST PUSH32 0x556E697377617056323A20464F5242494444454E000000000000000000000000 PUSH1 0x0 DUP3 ADD MSTORE POP JUMP JUMPDEST PUSH2 0x387 DUP2 PUSH2 0x31E JUMP JUMPDEST DUP2 EQ PUSH2 0x392 JUMPI PUSH1 0x0 DUP1 REVERT JUMPDEST POP JUMP INVALID LOG2 PUSH5 0x6970667358 0x22 SLT KECCAK256 BALANCE 0x21 0xBB DUP10 0xC1 DIV 0xAA 0xB5 0x4D PUSH17 0x7AB912DD2B3DDD39145AD1586A2C2D9BC2 DUP16 SWAP16 0x4A PUSH29 0x8964736F6C63430008070033A2646970667358221220E351F62DE3C4BC SAR SELFDESTRUCT LOG0 0xC1 0xCF 0x4E 0xE9 SWAP5 BALANCE POP DUP2 MSTORE 0x5E LOG2 0xE3 MUL MSTORE 0xD9 ISZERO PUSH30 0x4E3F79521064736F6C634300080700330000000000000000000000000000 "
				},
				"gasEstimates": {
					"creation": {
						"codeDepositCost": "723000",
						"executionCost": "753",
						"totalCost": "723753"
					},
					"external": {
						"allPairs(uint256)": "4934",
						"calculateAddr(address,address)": "infinite",
						"createPair2(address,address)": "infinite",
						"getPair(address,address)": "infinite"
					}
				},
				"methodIdentifiers": {
					"allPairs(uint256)": "1e3dd18b",
					"calculateAddr(address,address)": "df06b188",
					"createPair2(address,address)": "93850187",
					"getPair(address,address)": "e6a43905"
				}
			},
			"storageLayout": {
				"storage": [
					{
						"astId": 47,
						"contract": "tutorial/Create2.sol:PairFactory2",
						"label": "getPair",
						"offset": 0,
						"slot": "0",
						"type": "t_mapping(t_address,t_mapping(t_address,t_address))"
					},
					{
						"astId": 50,
						"contract": "tutorial/Create2.sol:PairFactory2",
						"label": "allPairs",
						"offset": 0,
						"slot": "1",
						"type": "t_array(t_address)dyn_storage"
					}
				],
				"types": {
					"t_address": {
						"encoding": "inplace",
						"label": "address",
						"numberOfBytes": "20"
					},
					"t_array(t_address)dyn_storage": {
						"base": "t_address",
						"encoding": "dynamic_array",
						"label": "address[]",
						"numberOfBytes": "32"
					},
					"t_mapping(t_address,t_address)": {
						"encoding": "mapping",
						"key": "t_address",
						"label": "mapping(address => address)",
						"numberOfBytes": "32",
						"value": "t_address"
					},
					"t_mapping(t_address,t_mapping(t_address,t_address))": {
						"encoding": "mapping",
						"key": "t_address",
						"label": "mapping(address => mapping(address => address))",
						"numberOfBytes": "32",
						"value": "t_mapping(t_address,t_address)"
					}
				}
			},
			"userdoc": {
				"kind": "user",
				"methods": {},
				"version": 1
			}
		}
	}
}